:100000000C9434000C9446000C9446000C9446006A
:100010000C9446000C9446000C9476000C946200FC
:100020000C9446000C9446000C944E000C94460030
:100030000C9446000C9446000C9446000C94460028
:100040000C9446000C9446000C9446000C94460018
:100050000C9446000C9446000C9446000C94460008
:100060000C9446000C94460011241FBECFEFD8E03C
:10007000DEBFCDBF21E0A0E0B1E001C01D92A43001
:10008000B207E1F70E9447020C9474030C9400003D
:10009000809103018F5F8093030108951F920F9257
:1000A0000FB60F9211248F939F938AEA90E090935A
:1000B0000101809300019F918F910F900FBE0F90CF
:1000C0001F9018951F920F920FB60F9211248F93C5
:1000D0009F9388E490E090930101809300019F91A9
:1000E0008F910F900FBE0F901F9018951F920F9237
:1000F0000FB60F9211248F939F938AED90E0909307
:100100000101809300019F918F910F900FBE0F907E
:100110001F901895FC018285813081F030F082308B
:10012000B9F480917C008E7F0CC080917C0081604E
:1001300080937C0080918100806408C080917C0065
:10014000816080937C00809181008F7B809381000F
:10015000B59A0895FC0182858130D9F090F0823003
:1001600031F5809186009091870095838483228168
:100170003381821B930B9783868312861386A895FF
:1001800016C080918600909187009183808381E0E2
:100190000DC0809186009091870093838283208197
:1001A0003181821B930B9187808782E08287CF0108
:1001B0000C948A0021E0FC01238712860C948A00AB
:1001C0004F925F926F927F928F929F92AF92BF9267
:1001D000CF92DF92EF92FF920F931F93CF93DF9313
:1001E000FC018B017A018385813009F469C0668541
:1001F00077856417750720F4F801C484D58462C03C
:10020000C485D585F801A284B3844C175D0710F42A
:10021000650158C06C1B7D0BCB01A0E0B0E0BC01B8
:10022000CD0127E0660F771F881F991F2A95D1F708
:10023000F801248535852A193B09032E000C440B4F
:10024000550B0E941F0329013A01C701A0E0B0E04D
:10025000BC01CD01E7E0660F771F881F991FEA9563
:10026000D1F70E941F0369017A01CE01A0E0B0E03E
:10027000BC01CD01F7E0660F771F881F991FFA9523
:10028000D1F7A30192010E941F03C501BB0CAA0B69
:10029000BB0B49015A01881A990AAA0ABB0AC81855
:1002A000D9089601D7FE04C0222733272C193D090F
:1002B000F8018685082E000C990B8217930714F01D
:1002C000C12CD12CC601DF91CF911F910F91FF90CE
:1002D000EF90DF90CF90BF90AF909F908F907F90E6
:1002E0006F905F904F900895CF93DF93FC01C08192
:1002F000D18182819381209709F441C0209102012C
:1003000021113DC09695982F8827979587956FEF77
:1003100070E00E940B036C9FC0016D9F900D7C9F4D
:10032000900D112497FF02C081589F4F80786FEF86
:1003300070E00E940B0324813581629FC001639F9E
:10034000900D729F900D112497FF02C081589F4F0E
:10035000880F892F881F990B9E01281B390B273086
:100360004FEF340714F427E03FEF2A3F310514F034
:1003700029EF30E0318720878C0F9D1F1CC0BC0106
:1003800022273327281B390B97FDB90141E0603143
:1003900071050CF440E04093020187304FEF940761
:1003A00014F487E09FEF8A3F910514F089EF90E005
:1003B00091878087C90187302FEF920714F487E077
:1003C0009FEF8A3F910514F089EF90E09783868331
:1003D000DF91CF910895882319F085B1806202C022
:1003E00085B18F7D85B90895882319F085B1816025
:1003F00002C085B18E7F85B90895882311F05B987E
:1004000008955B9A0895882311F05C9808955C9A8A
:100410000895CF93DF93EC018885998597FD02C0FD
:100420005B9803C080E00E94FD018885998597FF55
:1004300003C091958195910987BD8E819F8197FD1C
:1004400002C05C9803C080E00E9403028E819F81FD
:1004500097FF03C091958195910988BD88859985FD
:10046000892B21F48E819F81892B11F081E001C0BD
:1004700080E0DF91CF910C94F401481759072CF0DC
:10048000861797071CF4CB010895CA010895CF93EE
:10049000DF93CDB7DEB76F970FB6F894DEBF0FBE10
:1004A000CDBF8E010F5F1F4F80E1F80111928A9539
:1004B000E9F781E08C878AE79AE39E878D878AE84F
:1004C0009BE6988B8F877E01F1E1EF0EF11C8FE0A8
:1004D000F70111928A95E9F781E09FEF9C8F8B8F4E
:1004E0008FEF90E09E8F8D8F8AE08F8FF8948091B0
:1004F0007A008F7780937A0080917B00806480936C
:100500007B0080917E00836080937E0080B7806452
:1005100080BF80B7846080BF80B7826080BF8091D9
:100520006F00806280936F0080918100806880936B
:1005300081008091810081608093810080917C00A6
:10054000887F80937C00259A209A8AB180668AB938
:100550008AB188618AB98091600088618093600067
:1005600085E480936000789484B5816084BD84B50F
:10057000806884BD84B5806284BD84B5806484BD98
:1005800084B5806184BD85B5826085BD83B7817F78
:1005900083BF80E00E94EB01C8010E948A0084E6CC
:1005A000C82ED12CC7010E94090283B7816083BF86
:1005B000889583B78E7F83BFE0910001F0910101A0
:1005C000309731F0C8010995109201011092000195
:1005D0004F815885B701C8010E94E0009C8B8B8B2E
:1005E00049855A85B701C8010E94E0009A8B898B22
:1005F000DE8ACD8AC7010E947401898D9A8D892B6C
:1006000021F48F89988D892B11F080E001C081E061
:100610000E94EB01C7CF97FB072E16F4009407D07A
:1006200077FD09D00E943E0307FC05D03EF490956B
:1006300081959F4F0895709561957F4F0895052E80
:1006400097FB1EF400940E94360357FD07D00E94CA
:10065000520307FC03D04EF40C943603509540959A
:10066000309521953F4F4F4F5F4F0895909580955E
:10067000709561957F4F8F4F9F4F0895AA1BBB1BAD
:1006800051E107C0AA1FBB1FA617B70710F0A61B92
:10069000B70B881F991F5A95A9F780959095BC01B3
:1006A000CD010895A1E21A2EAA1BBB1BFD010DC0AE
:1006B000AA1FBB1FEE1FFF1FA217B307E407F50712
:1006C00020F0A21BB30BE40BF50B661F771F881FEE
:1006D000991F1A9469F760957095809590959B0184
:0C06E000AC01BD01CF010895F894FFCFDC
:00000001FF
