:100000000C9434000C9451000C9451000C94510049
:100010000C9451000C9451000C94C4000C949C005E
:100020000C9451000C9451000C9488000C945100D5
:100030000C9451000C9451000C9451000C945100FC
:100040000C9451000C9451000C9451000C945100EC
:100050000C9451000C94B0000C9451000C9451007D
:100060000C9451000C94510011241FBECFEFD8E026
:10007000DEBFCDBF11E0A0E0B1E0E6E9FCE002C0E8
:1000800005900D92A230B107D9F721E0A2E0B1E0CE
:1000900001C01D92AA34B207E1F70E94F4020C9449
:1000A00049060C940000DC01EAE7F0E090819F77BC
:1000B0009083E0910001F09101018091780080919E
:1000C000790011821082209105013091060181E0B2
:1000D000E934F807D1F03296F0930101E093000182
:1000E00080819181281B390B3093060120930501F3
:1000F00036952795329522952F7023273F70232719
:100100001D963C932E931C970895E7E0F1E0E4CF11
:100110001F920F920FB60F9211248F939F9384E03A
:1001200091E090930301809302019F918F910F9032
:100130000FBE0F901F9018951F920F920FB60F923F
:1001400011248F939F9388EA95E090930301809305
:1001500002019F918F910F900FBE0F901F901895E5
:100160001F920F920FB60F9211248F939F9383E5E6
:1001700090E090930301809302019F918F910F90E3
:100180000FBE0F901F9018951F920F920FB60F92EF
:1001900011248F939F938DE792E0909303018093B6
:1001A00002019F918F910F900FBE0F901F90189595
:1001B000FC018285813089F020F08230D1F0B59A3F
:1001C0000895ECE7F0E08081807F81608083E1E842
:1001D000F0E0808180648083F2CFECE7F0E0808102
:1001E000807F81608083E1E8F0E080818F7B808385
:1001F000E6CFECE7F0E08081807F8083E1E8F0E00B
:1002000080818F7B8083DBCFFC012285213081F0D0
:1002100028F02230E9F00E94D8000895209186004D
:1002200030918700FC013183208321E02287F3CFC6
:100230002091860030918700FC0133832283408126
:100240005181241B350B3187208722E02287E3CFA1
:100250002091860030918700FC0135832483428100
:100260005381241B350B3783268312862385211166
:10027000D2CF21E02387CFCF4F925F926F927F92B0
:100280008F929F92AF92BF92CF92DF92EF92FF92A6
:100290000F931F93CF93DF93EC017B016901481704
:1002A000590708F482C08617970708F490C0461BC8
:1002B000570BBA0180E090E0660F771F881F991FE7
:1002C000660F771F881F991F660F771F881F991F5A
:1002D000660F771F881F991F660F771F881F991F4A
:1002E000660F771F881F991F660F771F881F991F3A
:1002F00098012C193D09032E000C440B550B0E944C
:10030000F40549015A01BE0180E090E0660F771FB5
:10031000881F991F660F771F881F991F660F771F09
:10032000881F991F660F771F881F991F660F771FF9
:10033000881F991F660F771F881F991F660F771FE9
:10034000881F991F0E94F40529013A01B70180E036
:1003500090E0660F771F881F991F660F771F881F11
:10036000991F660F771F881F991F660F771F881FB9
:10037000991F660F771F881F991F660F771F881FA9
:10038000991F660F771F881F991FA50194010E946E
:10039000F4050D2C000CEE08FF082C193D094E0940
:1003A0005F09C201821B930B01C0C801DF91CF918D
:1003B0001F910F91FF90EF90DF90CF90BF90AF9083
:1003C0009F908F907F906F905F904F900895C9019C
:1003D000EDCFFC012081318182819381211531058E
:1003E00021F040910401442369F1AC0199230CF4FC
:1003F00076C021E0403151050CF420E02093040147
:10040000582F492F87302FEF920714F457E04FEF02
:10041000252F342F2A3F310514F029EF30E03187A2
:10042000208791958195910987306FEF960714F495
:1004300087E09FEF8A3F910514F089EF90E0978362
:10044000868308959695982F8827979587956FEFBF
:1004500070E00E94E005629FC001639F900D729F53
:10046000900D11249923ACF180786FEF70E00E9419
:10047000E00544815581649FC001659F900D749F84
:10048000900D1124992344F1AC01440F452F441FD2
:10049000550BC901841B950B87306FEF960714F439
:1004A00087E09FEF8A3F910514F089EF90E09187F4
:1004B0008087240F351F27308FEF380714F427E08B
:1004C0003FEF2A3F310514F029EF30E037832683D0
:1004D000089581589F4FC8CF81589F4FD5CF44274B
:1004E0005527481B590B85CF811104C085B18F7DDD
:1004F00085B9089585B18062FBCFFC011386128611
:100500000E94D80080E00E9474020895811104C006
:1005100085B18E7F85B9089585B18160FBCF81114A
:1005200002C05B9A08955B980895811102C05C9A9D
:1005300008955C9808950F931F93CF93DF938C01D8
:10054000EB019923ECF081E00E948F02C801112396
:1005500094F087BDDD237CF181E00E949502CE01FD
:10056000DD2324F188BD012B69F5CD2B59F580E001
:100570000E9486022AC088279927801B910BE9CF09
:1005800080E00E948F02C80199235CF087BDDD23C3
:1005900094F081E00E949502CE01DD2304F188BD34
:1005A00011C088279927801B910BF0CF88279927A6
:1005B0008C1B9D0BD7CF80E00E949502CE01DD23DE
:1005C0004CF088BD81E00E948602DF91CF911F919F
:1005D0000F910895882799278C1B9D0BF2CF8827B0
:1005E00099278C1B9D0BDBCFCF93DF93CDB7DEB765
:1005F000EA970FB6F894DEBF0FBECDBF8E01095D3E
:100600001F4F84E1D8011D928A95E9F7FE013C96BF
:100610008BE1DF011D928A95E9F781E090E09D87EB
:100620008C879F878E87998B888B9B8B8A8B80E0AA
:1006300090E89BA38AA38FEF9FE79DA38CA381E003
:100640008EA3FAAFE9AF3B978BE0DF011D928A954D
:10065000E9F784E690E09E838D838AE08B87F894A7
:10066000A89584B7877F84BFE0E6F0E08081886149
:1006700080838DE08083808180648083EAE7F0E07E
:1006800080818F7780838081887F8083EBE7F0E0B3
:10069000808180648083EEE7F0E0808187608083E2
:1006A00080B7806480BF80B7846080BF80B782607D
:1006B00080BFE1E8F0E08081806880838081816094
:1006C0008083ECE7F0E08081807F808380818F7B76
:1006D0008083259A209A8AB180668AB98AB1886116
:1006E0008AB9E1EBF0E0808187608083E0EBF0E0A5
:1006F00080818260808383EF8093B300789484B597
:10070000816084BD84B5806884BD84B5806284BD09
:1007100084B5806484BD84B5806184BD85B5826004
:1007200085BD83B7817F83BF80E00E947402C801CA
:100730000E94D8000F2EF0E6EF2EF12CF02D0F2E98
:10074000412CF8E75F2EF7EE6F2E77247A94F02D88
:10075000CC24CA940F2EFFE7DF2EF02DA12C689435
:10076000BB24B7F867C00C2D1D2D6FA578A96B3879
:10077000ABE67A0708F0B9C06A37BAE37B0708F43A
:10078000E9C080E090E0660F771F881F991F660F11
:10079000771F881F991F660F771F881F991F660F85
:1007A000771F881F991F660F771F881F991F660F75
:1007B000771F881F991F660F771F881F991FA30136
:1007C00092010E94F4052F5F3F4704C020E030E013
:1007D00000E010E08B85082E000C990BA801112376
:1007E0000CF486C0841795070CF087C0A901332349
:1007F0000CF486C0841795070CF087C01C830B830C
:100800003A832983CE0101960E94E9018AA98130A9
:1008100009F483C06F81788589859A850E949B023F
:100820001A8619868F819885892B09F47DC080E00E
:100830000E947402A8958FE19EE40197F1F7F701F9
:1008400080818064808383B7816083BF889583B70C
:100850008E7F83BF8FE19EE40197F1F7E091020163
:10086000F0910301309739F0CE01879609951092E7
:100870000301109202018FE295E70197F1F78AA92F
:10088000882309F4A3CF6DA57EA56B38FBE67F070F
:1008900008F069CF6A378AE3780708F452C080E02D
:1008A00090E0660F771F881F991F660F771F881FBC
:1008B000991F660F771F881F991F660F771F881F64
:1008C000991F660F771F881F991F660F771F881F54
:1008D000991F660F771F881F991FA30192010E941D
:1008E000F40589010F5F1F4740CF2C2D3D2D72CF9E
:1008F00044275527401B510B75CF00E010E076CF01
:1009000044275527421B530B75CF20E030E076CFAC
:1009100000E010E020E030E071CF6F8178858985BC
:100920009A850E949B027CCF80E00E94740282CF55
:100930008B85082E000C990B2C2D3D2D00E010E02E
:1009400055CF6FA578A96B38EBE67E0788F70A2D9F
:100950001B2D12CF9801112354F08B85082E000C0B
:10096000990B82179307A4F620E030E047CF2227A7
:100970003327201B310BF1CF481759072CF086176E
:1009800097071CF4CB010895CA0108954F925F9216
:100990006F927F928F929F92BF92CF92DF92EF924F
:1009A000FF920F931F93CF93DF93CDB7DEB72897B6
:1009B0000FB6F894DEBF0FBECDBF9C0182E08983E5
:1009C00097EF9A8392E19B8395EF9C838D838BEFC6
:1009D0008E8384E08F838FEF8887B901665F7F4FB6
:1009E000D90152968D919C915397861B970B9595A3
:1009F0008795EE24E394E80EAE2DA370B0E0AA0F25
:100A0000BB1F3D01660E771EF901738A628A428D13
:100A10004130D9F0D90154968D919C9155972896E3
:100A20000FB6F894DEBF0FBECDBFDF91CF911F91FF
:100A30000F91FF90EF90DF90CF90BF909F908F909D
:100A40007F906F905F904F900895AE014F5F5F4F22
:100A50004A012E0155E0450E511C0F2EF5E0FF2EE8
:100A6000F02DF80E00E010E080E090E0D401BD90A1
:100A70004D01EE2DE370F0E03596EE0FFF1FE20F13
:100A8000F31F0190F081E02D6B2DAF016403600135
:100A9000659FD00C11248C0D9D1DD201BD902D01A0
:100AA0006B2D64036001659FD00C11240C0D1D1D7E
:100AB000E394FE10DBCFD90118964D915C91199704
:100AC000F30160817181461B570B12966D917C91E9
:100AD0001397469FF001479FF00D569FF00D11248C
:100AE00066E070E00E94E005E60FF71FD90114965A
:100AF0004D915C911597049FC001059F900D149F27
:100B0000900D1124E81BF90B4D915C911197E49F16
:100B1000C001E59F900DF49F900D112454964D91C6
:100B20005C915597840F951F58964D915C915997FC
:100B300056966D917C915797481759072CF0AC0148
:100B4000861797070CF4AB01F901558B448B62CFE4
:100B5000FC01828581110BC0AAE7B0E08C9180680E
:100B60008C93ACE7B0E09C91907F92609C939091C5
:100B700049019F5F90934901911107C0838582309D
:100B800020F0828993890E94C60408950F931F93D1
:100B9000FC01CA011783068371836083B8010E9438
:100BA000E00573836283C901B8010E94E005758383
:100BB0006483CF010A96938B828B1F910F910895C6
:100BC00097FB072E16F4009407D077FD09D00E94FA
:100BD000130607FC05D03EF4909581959F4F08952C
:100BE000709561957F4F0895052E97FB1EF4009434
:100BF0000E940B0657FD07D00E94270607FC03D072
:100C00004EF40C940B0650954095309521953F4F2E
:100C10004F4F5F4F089590958095709561957F4FE8
:100C20008F4F9F4F0895AA1BBB1B51E107C0AA1FFE
:100C3000BB1FA617B70710F0A61BB70B881F991F7D
:100C40005A95A9F780959095BC01CD010895A1E230
:100C50001A2EAA1BBB1BFD010DC0AA1FBB1FEE1F36
:100C6000FF1FA217B307E407F50720F0A21BB30B81
:100C7000E40BF50B661F771F881F991F1A9469F7FD
:100C800060957095809590959B01AC01BD01CF0159
:060C90000895F894FFCF67
:020C9600070154
:00000001FF
