:100000000C9434000C9451000C9451000C94510049
:100010000C9451000C9451000C94F0000C94C80006
:100020000C9451000C9451000C94B4000C945100A9
:100030000C9451000C9451000C9451000C945100FC
:100040000C9451000C9451000C9451000C945100EC
:100050000C9451000C94DC000C9451000C94510051
:100060000C9451000C94510011241FBECFEFD8E026
:10007000DEBFCDBF11E0A0E0B1E0E8E9FCE002C0E6
:1000800005900D92A230B107D9F721E0A2E0B1E0CE
:1000900001C01D92AA34B207E1F70E9456010C94E8
:1000A0004A060C940000FC011786168624E030E016
:1000B00035872487A8950895DC01EAE7F0E0808180
:1000C0008F778083ECE7F0E09081907F9160908360
:1000D000E0910001F0910101808191812091050161
:1000E00030910601281B390B30930601209305013E
:1000F000809178009091790091838083280F391F37
:10010000309306012093050181E0E534F80731F1D1
:100110003296F0930101E0930001369527953295D0
:1001200022952F7023273F7023274BE0429FC00169
:10013000439F900D1124825195409C0192F035957A
:100140002795359527953595279535952795359597
:10015000279551963C932E9350970895E7E0F1E050
:10016000D8CF215E3F4FEBCF1F920F920FB60F9269
:1001700011248F939F9383E594E0909303018093E0
:1001800002019F918F910F900FBE0F901F901895B5
:100190001F920F920FB60F9211248F939F938BE8AB
:1001A00095E090930301809302019F918F910F90AE
:1001B0000FBE0F901F9018951F920F920FB60F92BF
:1001C00011248F939F938CE590E09093030180938B
:1001D00002019F918F910F900FBE0F901F90189565
:1001E0001F920F920FB60F9211248F939F9383E566
:1001F00090E090930301809302019F918F910F9063
:100200000FBE0F901F901895FC0184859585823054
:10021000910579F178F40097F1F0019731F5ECE769
:10022000F0E08081807F8083E1E8F0E080818F7B57
:1002300080831BC08330910541F10497B1F4EAE754
:10024000F0E0808180688083ECE7F0E08081807F4F
:10025000826080830895ECE7F0E08081807F808376
:10026000E1E8F0E080818064808386B3806286BBB1
:100270000895ECE7F0E08081807F81608083E1E891
:10028000F0E0808180648083F0CFECE7F0E0808153
:10029000807F81608083EAE7F0E080818F778083D0
:1002A000E1E8F0E080818F7B8083DFCFCF93DF9325
:1002B000CDB7DEB7E3970FB6F894DEBF0FBECDBF64
:1002C000AE01445E5F4F88E1DA011D928A95E9F73D
:1002D000FE0131968BE1DF011D928A95E9F721E05D
:1002E00030E03A8329833C832B833E832D833887F8
:1002F0002F8384E690E09A87898780E090E8988F42
:100300008F8B8FEF9FE79A8F898F81E08B8FFBAB6D
:10031000EAABF894A89584B7877F84BFE0E6F0E065
:100320008081886180838DE0808380818064808388
:10033000EAE7F0E080818F77808380818760808327
:10034000808188608083EBE7F0E080818064808337
:10035000EEE7F0E080818760808380B7806480BFB3
:1003600080B7846080BF80B7826080BFEFE6F0E036
:10037000808180628083E1E8F0E080818068808312
:10038000808181608083ECE7F0E08081807F8083E2
:100390008081806C808384B1806284B984B1816003
:1003A00084B98AB180668AB98AB188618AB9E1EB79
:1003B000F0E0808187608083E0EBF0E08081826004
:1003C000808383EF8093B300E0E7F0E08081826078
:1003D0008083789484B5816084BD84B5806884BD51
:1003E00084B5806284BD84B5806484BD94B5906119
:1003F00094BD95B5926095BD93B7917F93BFCA01A7
:100400000E940401E0E6F0E080818064808383B78D
:10041000816083BF889583B78E7F83BFE09102019F
:10042000F0910301309771F3CE014C96099510922B
:10043000030110920201E6CF4F925F926F927F927A
:100440008F929F92AF92BF92CF92DF92EF92FF92E4
:100450000F931F93CF93DF93EC017B016901481742
:10046000590708F482C08617970708F490C0461B06
:10047000570BBA0180E090E0660F771F881F991F25
:10048000660F771F881F991F660F771F881F991F98
:10049000660F771F881F991F660F771F881F991F88
:1004A000660F771F881F991F660F771F881F991F78
:1004B00098012C193D09032E000C440B550B0E948A
:1004C000F50549015A01B70180E090E0660F771FFA
:1004D000881F991F660F771F881F991F660F771F48
:1004E000881F991F660F771F881F991F660F771F38
:1004F000881F991F660F771F881F991F660F771F28
:10050000881F991F0E94F5050D2C000CEE08FF08AE
:1005100029013A014C185D086E087F08BE0180E091
:1005200090E0660F771F881F991F660F771F881F3F
:10053000991F660F771F881F991F660F771F881FE7
:10054000991F660F771F881F991F660F771F881FD7
:10055000991F660F771F881F991FA50194010E949C
:10056000F505C9018419950901C0C801DF91CF9132
:100570001F910F91FF90EF90DF90CF90BF90AF90C1
:100580009F908F907F906F905F904F900895C901DA
:10059000EDCF811104C085B18F7D85B9089585B1F6
:1005A0008062FBCF811104C085B18E7F85B908952B
:1005B00085B18160FBCF811104C08BB188608BB99C
:1005C00008958BB1877F8BB90895811104C08BB1D9
:1005D00080618BB908958BB18F7E8BB908950F938D
:1005E0001F93CF93DF93EC018B0199230CF181E0F2
:1005F0000E94DB02CE01DD23B4F087BD112354F14C
:1006000081E00E94E502C8011123FCF088BDCD2BDA
:1006100011F4012B61F181E00E94D202DF91CF91B0
:100620001F910F910895882799278C1B9D0BE5CF6B
:1006300080E00E94DB02CE01DD2314F087BDDECF17
:10064000882799278C1B9D0BF9CF88279927801B1A
:10065000910BDCCF80E00E94E502C801112314F069
:1006600088BDD5CF88279927801B910BF9CF80E0D3
:100670000E94D202D3CF481759072CF0861797074C
:100680001CF4CB010895CA010895CF92DF92EF9236
:10069000FF920F931F93CF93DF93EC01E880F980D3
:1006A0000A811B81C8019695982F88279795879571
:1006B0006FEF70E00E94E105E69EC001E79E900D9D
:1006C000F69E900D112499230CF444C02C813D8199
:1006D00080786FEF70E00E94E105269F6001279F00
:1006E000D00C369FD00C1124DD20BCF1CC0CCD2CCD
:1006F000CC1CDD08E114F10421F080910401882371
:1007000081F1980111230CF443C081E020313105BF
:100710000CF480E08093040149EF50E067E07FEF44
:10072000C8010E943B039987888749EF50E067E042
:100730007FEF88279927801B910B0E943B039F83A3
:100740008E83DF91CF911F910F91FF90EF90DF90FB
:10075000CF90089581589F4FB9CF8FE7C80ED11C15
:10076000C5CF49EF50E067E07FEFC7018C199D09C5
:100770000E943B039987888749EF50E067E07FEF4D
:10078000C7018C0D9D1D0E943B039F838E83D9CF93
:1007900022273327201B310BB8CFCF92DF92EF9265
:1007A000FF920F931F93CF93DF93CDB7DEB72B97B5
:1007B0000FB6F894DEBF0FBECDBF6C01FE013196BF
:1007C0008BE0DF011D928A95E9F788E092E09E8335
:1007D0008D838AE08B87F60186859785892B09F4BE
:1007E0004CC00FE710E020E83FEF4AE753EA66E825
:1007F00075E6808591850E941C027C0120E83FEF10
:100800004AE753EA66E875E6D6011A968D919C91FF
:100810001B970E941C029701FF20A4F12B30310589
:1008200014F4E12CF12C9C0199238CF12B3031052F
:1008300014F480E090E0FC82EB829A838983CE01FD
:1008400001960E944503F60186859785019721F15F
:100850006F81788589859A850E94EF022B960FB665
:10086000F894DEBF0FBECDBFDF91CF911F910F91E6
:10087000FF90EF90DF90CF90089580E090E0E12C22
:10088000F12CC9CF222733272E193F09C7CF2227A2
:100890003327281B390BCACF6F81788589859A85C4
:1008A0000E94EF02DBCFCF93DF93EC018C859D8517
:1008B0008230910599F1B0F40097E1F0019729F5A4
:1008C00080918600909187009B838A83288139815B
:1008D000821B930B9987888782E090E09D878C87A5
:1008E000A89513C08330910529F1049771F41D86F2
:1008F0001C860BC080918600909187009983888325
:1009000081E090E09D878C87A895CE010E9404012C
:10091000CE010E94CD03DF91CF9108958091860092
:10092000909187009D838C8383E090E09D878C87E6
:10093000A895EBCF80918600909187009F838E834E
:100940002C813D81821B930B9B878A8784E090E0FA
:100950009D878C878E859F85892B21F481E090E08F
:100960009F878E87A895D1CFAF92BF92CF92DF920B
:10097000EF92FF920F931F93CF93DF93CDB7DEB724
:1009800028970FB6F894DEBF0FBECDBF8C0182E072
:10099000898397EF9A8392E19B8395EF9C838D8364
:1009A0008BEF8E8384E08F838FEF8887D8015296F8
:1009B0006D917C915397A801465F5F4F641B750B47
:1009C00075956795CC24C394C60E2C2D237030E00A
:1009D000220F331F5901A40EB51E5396BC92AE923E
:1009E00052975A968C91813009F48FC0F80184890E
:1009F000958928960FB6F894DEBF0FBECDBFDF9164
:100A0000CF911F910F91FF90EF90DF90CF90BF900B
:100A1000AF900895472F072E000C550BE1E0F0E052
:100A2000EC0FFD1FE40FF51FD080EC2DE370F0E01C
:100A30003596EE0FFF1FE00FF11F0190F081E02DC2
:100A40006D2D9F016203D001639FB00D11248A0FA9
:100A50009B1FA5E0B0E0AC0FBD1F4A0F5B1FDA0182
:100A6000DC906D2D6203A001639F500D1124E40EF4
:100A7000F51EC3947F5F74306CF266E070E00E94F4
:100A8000E105D80118968D919C911997F501208167
:100A90003181821B930B4D915C9111971296ED91D0
:100AA000FC9113978E9F90018F9F300D9E9F300D6C
:100AB0001124620F731F14962D913C911597E29E9D
:100AC000C001E39E900DF29E900D1124681B790BDE
:100AD000469F9001479F300D569F300D112454962C
:100AE0008D919C91559758964D915C91599756963A
:100AF0006D917C915797820F931F0E943B03D80101
:100B000055969C938E93549771CF70E0E12CF12C05
:100B100080E090E0B0CFCF93DF93EC018C859D8592
:100B2000049769F180914901805F809349018111A7
:100B300008C08E859F85029720F08E899F890E942C
:100B4000B40480914901811117C0809147019091AF
:100B500048010197C1F081E00E94C90281E090E064
:100B60002091470130914801232B11F080E090E063
:100B70009093480180934701DF91CF910895CE0172
:100B80000E940401CFCF80E00E94C902E7CF0F93FB
:100B90001F93FC01CA011783068371836083B80128
:100BA0000E94E10573836283C901B8010E94E105D7
:100BB00075836483CF010A96938B828B1F910F916B
:100BC000089597FB072E16F4009407D077FD09D0FF
:100BD0000E94140607FC05D03EF4909581959F4F26
:100BE0000895709561957F4F0895052E97FB1EF42B
:100BF00000940E940C0657FD07D00E94280607FCAF
:100C000003D04EF40C940C065095409530952195E8
:100C10003F4F4F4F5F4F0895909580957095619528
:100C20007F4F8F4F9F4F0895AA1BBB1B51E107C0F9
:100C3000AA1FBB1FA617B70710F0A61BB70B881F6C
:100C4000991F5A95A9F780959095BC01CD010895FB
:100C5000A1E21A2EAA1BBB1BFD010DC0AA1FBB1FC0
:100C6000EE1FFF1FA217B307E407F50720F0A21B32
:100C7000B30BE40BF50B661F771F881F991F1A949F
:100C800069F760957095809590959B01AC01BD01C9
:080C9000CF010895F894FFCF95
:020C9800070152
:00000001FF
