:100000000C9434000C9451000C9451000C94510049
:100010000C9451000C9451000C946E010C94460108
:100020000C9451000C9451000C9432010C9451002A
:100030000C9451000C9451000C9451000C945100FC
:100040000C9451000C9451000C9451000C945100EC
:100050000C9451000C945A010C9451000C945100D2
:100060000C9451000C94510011241FBECFEFD8E026
:10007000DEBFCDBF11E0A0E0B1E0E4E9F9E002C0ED
:1000800005900D92A230B107D9F721E0A2E0B1E0CE
:1000900001C01D92AA34B207E1F70E9425030C9417
:1000A000C8040C940000FC01828581110BC0809172
:1000B0007A00806880937A0080917C00807F8260E3
:1000C00080937C00809149018F5F80934901811169
:1000D00001C0A8950895DC0190917A009F779093D4
:1000E0007A00E0910001F091010180917800809107
:1000F000790011821082209105013091060181E082
:10010000E934F80711F0329602C0E7E0F1E0F0932D
:100110000101E093000180819181281B390B30930C
:1001200006012093050185E0369527958A95E1F72C
:100130001D963C932E931C970895EF92FF920F9378
:100140001F93CF93DF93FC01848900851185A285DD
:10015000B385882309F44FC0641B750B828193819A
:10016000689F9001699F300D789F300D1124C80160
:10017000841B950B7901E80EF91E64857585CD0108
:10018000880F991F880F991F861B970BCBEF2C2F79
:100190002003B001219F700D1124860F971FBA0113
:1001A000660F771F860F971FC481D5818C9FB00182
:1001B0008D9F700D9C9F700D11249701261B370B8E
:1001C00080819181289FB001299F700D389F700D0B
:1001D000112486859785860F971F978786872089A4
:1001E0003189821793072CF0228933892817390720
:1001F00014F437872687B587A4871387028751872A
:10020000408786859785DF91CF911F910F91FF9051
:10021000EF9008950F931F93FC011783068371835A
:100220006083C801BA010E945F0473836283C901BD
:10023000B8010E945F04758364831F910F91089534
:100240000F931F93FC01718B608B538B428B37870D
:1002500026871187008713870287158704871F91D8
:100260000F9108951F920F920FB60F9211248F9342
:100270009F9384EA91E090930301809302019F9100
:100280008F910F900FBE0F901F9018951F920F9295
:100290000FB60F9211248F939F9383E590E0909374
:1002A0000301809302019F918F910F900FBE0F90D9
:1002B0001F9018951F920F920FB60F9211248F93D3
:1002C0009F938BE690E090930301809302019F91AE
:1002D0008F910F900FBE0F901F9018951F920F9245
:1002E0000FB60F9211248F939F9388ED91E0909316
:1002F0000301809302019F918F910F900FBE0F9089
:100300001F901895FC018285813089F030F0823091
:10031000C9F480917C00807F0EC080917C00807F3A
:10032000816080937C0080918100806409C080910D
:100330007C00807F816080937C00809181008F7B36
:1003400080938100B59A0895FC018285813061F027
:1003500018F08230C1F029C080918600909187000A
:100360009183808381E00DC0809186009091870009
:100370009383828320813181821B930B91878087B5
:1003800082E0828712C080918600909187009583D9
:10039000848322813381821B930B97838683128609
:1003A0008385811102C081E08387CF010C94820193
:1003B000FC01138612860C9482014F925F926F9219
:1003C0007F928F929F92AF92BF92CF92DF92EF92E5
:1003D000FF920F931F93CF93DF936C017B01E90191
:1003E0004817590708F44DC08617970708F44BC003
:1003F000BA016E197F09CB01A0E0B0E0BC01CD01CC
:1004000027E0660F771F881F991F2A95D1F798015B
:100410002C1B3D0B032E000C440B550B0E94730448
:1004200049015A01C601A0E0B0E0BC01CD01E7E0FE
:10043000660F771F881F991FEA95D1F70E947304F2
:1004400029013A01C701A0E0B0E0BC01CD01F7E00D
:10045000660F771F881F991FFA95D1F7A5019401A0
:100460000E947304CE01DD0FAA0BBB0B79018A0138
:10047000E81AF90A0A0B1B0BD801C7018201081BF5
:10048000190BC80101C0C901DF91CF911F910F91D4
:10049000FF90EF90DF90CF90BF90AF909F908F90A4
:1004A0007F906F905F904F900895CF93DF93FC0102
:1004B000C081D18182819381209709F441C020912C
:1004C000040121113DC09695982F8827979587950F
:1004D0006FEF70E00E945F046C9FC0016D9F900DF4
:1004E0007C9F900D112497FF02C081589F4F807808
:1004F0006FEF70E00E945F0424813581629FC0012C
:10050000639F900D729F900D112497FF02C0815838
:100510009F4F880F892F881F990B9E01281B390B2D
:1005200027304FEF340714F427E03FEF2A3F31051F
:1005300014F029EF30E0318720878C0F9D1F1CC0FD
:10054000BC0122273327281B390B97FDB90141E055
:10055000603171050CF440E04093040187304FEFA7
:10056000940714F487E09FEF8A3F910514F089EF18
:1005700090E091878087C90187302FEF920714F4AC
:1005800087E09FEF8A3F910514F089EF90E0978311
:100590008683DF91CF910895882319F085B1806219
:1005A00002C085B18F7D85B90895882319F085B182
:1005B000816002C085B18E7F85B90895882311F0CE
:1005C0005B9808955B9A0895882311F05C980895CC
:1005D0005C9A08950F931F93CF93DF938C01EB01E7
:1005E00097FD05C05B9887BD77FF0BC00FC080E00B
:1005F0000E94DE0211950195110907BDD7FF18C0B1
:1006000005C05C9868BD012B41F009C080E00E94E4
:10061000E402D195C195D1090CC0CD2B11F081E038
:1006200001C080E0DF91CF911F910F910C94D50212
:100630005C98C8BDF4CF481759072CF08617970768
:100640001CF4CB010895CA010895CF93DF93CDB771
:10065000DEB76D970FB6F894DEBF0FBECDBFCE01EB
:1006600001967C0182E1F70111928A95E9F76E010A
:10067000F3E1CF0ED11C8BE0F60111928A95E9F7D8
:100680008AE08D8FF89480917A008F7780937A003A
:1006900080917A00887F80937A0080917A00877FAA
:1006A00080937A0080917B00806480937B008091AE
:1006B0007E00876080937E0080B7806480BF80B7B3
:1006C000846080BF80B7826080BF80916F0080624D
:1006D00080936F0080918100806880938100809179
:1006E000810081608093810080917C00807F809375
:1006F0007C0080917C008F7B80937C008091B10096
:1007000087608093B1008091B00082608093B000D8
:1007100083EF8093B30080917000826080937000BB
:10072000259A209A8AB180668AB98AB188618AB985
:100730008091600088618093600085E48093600010
:10074000789484B5816084BD84B5806884BD84B5A7
:10075000806284BD84B5806484BD84B5806184BDBD
:1007600085B5826085BD83B7817F83BF80E00E94AD
:10077000CC02C7010E94820140E5442E4CE0542E79
:10078000612C712C54E6A52EB12C83B7816083BFF8
:10079000889583B78E7F83BFE0910201F0910301BA
:1007A000309731F0C70109951092030110920201B0
:1007B0008C85882309F440C06F8178856B38FBE60F
:1007C0007F07C0F46A378AE37807B8F0CB01A0E06E
:1007D000B0E0BC01CD0137E0660F771F881F991F7D
:1007E0003A95D1F7A30192010E94730489010E5535
:1007F000134005C00FEF10E002C001E01FEF698554
:100800007A856B389BE67907E0F46A37EAE37E077E
:10081000D8F0CB01A0E0B0E0BC01CD0127E0660F2D
:10082000771F881F991F2A95D1F7A30192010E9473
:1008300073042E5533400AC020E030E000E010E0A1
:1008400005C02FEF30E002C021E03FEF8D8D082E74
:10085000000C990BA80117FF04C044275527401B23
:10086000510B8417950714F000E010E0A90137FF41
:1008700004C044275527421B530B8417950714F0D7
:1008800020E030E01E8B0D8B3C8B2B8BB88EAF8A1B
:10089000C6010E945502698D7A8D8B8D9C8D0E94B8
:1008A000EA028B8D9C8D892B21F4898D9A8D892B61
:1008B00011F080E001C081E00E94CC0266CF97FB7E
:1008C000072E16F4009407D077FD09D00E949204F9
:1008D00007FC05D03EF4909581959F4F0895709543
:1008E00061957F4F0895052E97FB1EF400940E949A
:1008F0008A0457FD07D00E94A60407FC03D04EF4DB
:100900000C948A0450954095309521953F4F4F4F58
:100910005F4F089590958095709561957F4F8F4FAB
:100920009F4F0895AA1BBB1B51E107C0AA1FBB1F05
:10093000A617B70710F0A61BB70B881F991F5A956B
:10094000A9F780959095BC01CD010895A1E21A2EDA
:10095000AA1BBB1BFD010DC0AA1FBB1FEE1FFF1F63
:10096000A217B307E407F50720F0A21BB30BE40BB3
:10097000F50B661F771F881F991F1A9469F76095FA
:100980007095809590959B01AC01BD01CF010895B4
:04099000F894FFCF09
:02099400070159
:00000001FF
