:100000000C9434000C9451000C9451000C94510049
:100010000C9451000C9451000C94C1000C94990064
:100020000C9451000C9451000C9485000C945100D8
:100030000C9451000C9451000C9451000C945100FC
:100040000C9451000C9451000C9451000C945100EC
:100050000C9451000C94AD000C9451000C94510080
:100060000C9451000C94510011241FBECFEFD8E026
:10007000DEBFCDBF11E0A0E0B1E0E8E6FAE002C0EB
:1000800005900D92A230B107D9F721E0A2E0B1E0CE
:1000900001C01D92AA34B207E1F70E9470030C94CC
:1000A00032050C940000DC0190917A009F779093C8
:1000B0007A00E0910001F091010180917800809137
:1000C000790011821082209105013091060181E0B2
:1000D000E934F80711F0329602C0E7E0F1E0F0935E
:1000E0000101E093000180819181281B390B30933D
:1000F00006012093050185E0369527958A95E1F75D
:100100001D963C932E931C9708951F920F920FB645
:100110000F9211248F939F9387EF90E090930301A8
:10012000809302019F918F910F900FBE0F901F90AF
:1001300018951F920F920FB60F9211248F939F93D1
:1001400086EF92E090930301809302019F918F913B
:100150000F900FBE0F901F9018951F920F920FB621
:100160000F9211248F939F9383E590E09093030166
:10017000809302019F918F910F900FBE0F901F905F
:1001800018951F920F920FB60F9211248F939F9381
:100190008BE291E090930301809302019F918F91F4
:1001A0000F900FBE0F901F901895FC018285813033
:1001B00089F030F08230C9F480917C00807F0EC0DD
:1001C00080917C00807F816080937C0080918100A1
:1001D000806409C080917C00807F816080937C0076
:1001E000809181008F7B80938100B59A0895FC01F6
:1001F0008285813061F018F08230C1F029C0809191
:100200008600909187009183808381E00DC080916A
:100210008600909187009383828320813181821BA5
:10022000930B9187808782E0828712C0809186003D
:10023000909187009583848322813381821B930B65
:100240009783868312868385811102C081E083872C
:10025000CF010C94D500FC01138612860C94D500B6
:100260004F925F926F927F928F929F92AF92BF92C6
:10027000CF92DF92EF92FF920F931F93CF93DF9372
:100280006C017B01E9014817590708F44DC0861736
:10029000970708F44BC0BA016E197F09CB01A0E0A3
:1002A000B0E0BC01CD0127E0660F771F881F991FC2
:1002B0002A95D1F798012C1B3D0B032E000C440B03
:1002C000550B0E94DD0449015A01C601A0E0B0E0CF
:1002D000BC01CD01E7E0660F771F881F991FEA95E3
:1002E000D1F70E94DD0429013A01C701A0E0B0E086
:1002F000BC01CD01F7E0660F771F881F991FFA95A3
:10030000D1F7A50194010E94DD04CE01DD0FAA0BF7
:10031000BB0B79018A01E81AF90A0A0B1B0BD801F9
:10032000C7018201081B190BC80101C0C901DF9177
:10033000CF911F910F91FF90EF90DF90CF90BF90E2
:10034000AF909F908F907F906F905F904F900895A7
:10035000CF93DF93FC01C081D1818281938120976B
:1003600009F441C02091040121113DC09695982FB8
:100370008827979587956FEF70E00E94C9046C9F5E
:10038000C0016D9F900D7C9F900D112497FF02C0BE
:1003900081589F4F80786FEF70E00E94C9042481DC
:1003A0003581629FC001639F900D729F900D112453
:1003B00097FF02C081589F4F880F892F881F990B84
:1003C0009E01281B390B27304FEF340714F427E028
:1003D0003FEF2A3F310514F029EF30E031872087C5
:1003E0008C0F9D1F1CC0BC0122273327281B390BF3
:1003F00097FDB90141E0603171050CF440E0409394
:10040000040187304FEF940714F487E09FEF8A3F91
:10041000910514F089EF90E091878087C9018730BA
:100420002FEF920714F487E09FEF8A3F910514F0B5
:1004300089EF90E097838683DF91CF910895882399
:1004400019F085B1806202C085B18F7D85B90895AC
:10045000882319F085B1816002C085B18E7F85B98E
:100460000895882311F05B9808955B9A08956F9220
:100470007F929F92AF92BF92CF92DF92EF92FF92C4
:100480000F931F93CF93DF93CDB7DEB728970FB6A7
:10049000F894DEBF0FBECDBFFC0182E08D8397EFE5
:1004A0009E8392E19F8395EF988789838BEF8A8360
:1004B00084E08B838FEF8C83AF01465F5F4F82892F
:1004C0009389841B950B95958795982E8F5F8370E4
:1004D0003A01680E711C680E711C738A628A828DE3
:1004E000813009F06DC05E0165E0A60EB11CCE0141
:1004F00001966C0191E000E010E0E12CF12CD501B7
:100500008D915D01692D690F63709A01260F311D70
:10051000260F311DD9012D913C91682F6203D00126
:10052000639FB00D1124EA0EFB1ED6018D916D0163
:10053000682F6203D001639FB00D11240A0F1B1FA7
:100540009F5F9530E1F680859185D3012D913C9197
:10055000821B930B42815381849F9001859F300DB4
:10056000949F300D1124C70166E070E00E94C90419
:10057000620F731F24813581029FC001039F900D7C
:10058000129F900D1124681B790B80819181689FC7
:100590009001699F300D789F300D112484899589D1
:1005A000280F391F808D918D4689578982179307AF
:1005B0002CF0C901241735070CF4CA01958B848BE4
:1005C0008489958928960FB6F894DEBF0FBECDBFFB
:1005D000DF91CF911F910F91FF90EF90DF90CF901F
:1005E000BF90AF909F907F906F900895FC0182859F
:1005F00081110BC080917A00806880937A0090917D
:100600007C00907F926090937C00909149019F5F65
:1006100090934901911108C08385823020F082892E
:1006200093890E943702A89508950F931F93FC01A8
:10063000CA011783068371836083B8010E94C904CD
:1006400073836283C901B8010E94C90475836483FE
:10065000CF010A96938B828B1F910F910895882367
:1006600011F05C9808955C9A08950F931F93CF93AF
:10067000DF938C01EB0197FD05C05B9887BD77FF89
:100680000BC00FC080E00E94310211950195110945
:1006900007BDD7FF18C005C05C9868BD012B41F0AD
:1006A00009C080E00E942F03D195C195D1090CC0EB
:1006B000CD2B11F081E001C080E0DF91CF911F913F
:1006C0000F910C9428025C98C8BDF4CF48175907C5
:1006D0002CF0861797071CF4CB010895CA010895E2
:1006E000CF93DF93CDB7DEB7EA970FB6F894DEBFAE
:1006F0000FBECDBF7E018CE1E80EF11C84E1D70175
:100700001D928A95E9F7FE0131968BE1DF011D927A
:100710008A95E9F781E090E09A8389839C838B83B3
:100720009E838D8398878F8380E090E8988F8F8B4E
:100730008FEF9FE79A8F898F81E08B8FFFA7EEA7BE
:100740006E01B0E3CB0ED11C8BE0F60111928A95BD
:10075000E9F78AE08AAFF89480917A008F778093E6
:100760007A0080917A00887F80937A0080917A0065
:10077000877F80937A0080917B00806480937B00E8
:1007800080917E00876080937E0080B7806480BF08
:1007900080B7846080BF80B7826080BF80916F0027
:1007A000806280936F0080918100806880938100D7
:1007B0008091810081608093810080917C00807FA6
:1007C00080937C0080917C008F7B80937C00809163
:1007D000B10087608093B1008091B0008260809307
:1007E000B00083EF8093B3008091700082608093AB
:1007F0007000259A209A8AB180668AB98AB1886188
:100800008AB98091600088618093600085E480935C
:100810006000789484B5816084BD84B5806884BDAF
:1008200084B5806284BD84B5806484BD84B58061F4
:1008300084BD85B5826085BD83B7817F83BF80E03D
:100840000E941F02C7010E94D500412C48E7542E88
:1008500047EE642E77247A9454E6A52EB12C83B704
:10086000816083BF889583B78E7F83BFE09102014B
:10087000F0910301309731F0C701099510920301FF
:10088000109202018FA1882309F440C06AA17BA1C4
:100890006B38FBE67F07C0F46A378AE37807B8F065
:1008A000CB01A0E0B0E0BC01CD0137E0660F771FBF
:1008B000881F991F3A95D1F7A30192010E94DD0488
:1008C00089010F5F1F4705C00FEF1FE702C000E05F
:1008D00010E86CA17DA16B38ABE67A07E0F46A37CB
:1008E000BAE37B07D8F0CB01A0E0B0E0BC01CD01BA
:1008F00027E0660F771F881F991F2A95D1F7A3015C
:1009000092010E94DD042F5F3F470AC020E030E0E3
:1009100000E010E005C02FEF3FE702C020E030E824
:100920008AAD082E000C990BA80117FF04C04427BC
:100930005527401B510B8417950714F000E010E079
:10094000A90137FF04C044275527421B530B8417C6
:10095000950714F020E030E01BAB0AAB39AB28ABB5
:10096000BDAAACAAC6010E94A8016EA97FA988AD44
:1009700099AD0E94350388AD99AD892B21F48EA9DC
:100980009FA9892B11F080E001C081E00E941F0225
:1009900066CF97FB072E16F4009407D077FD09D099
:1009A0000E94FC0407FC05D03EF4909581959F4F72
:1009B0000895709561957F4F0895052E97FB1EF45D
:1009C00000940E94F40457FD07D00E94100507FC14
:1009D00003D04EF40C94F404509540953095219535
:1009E0003F4F4F4F5F4F089590958095709561955B
:1009F0007F4F8F4F9F4F0895AA1BBB1B51E107C02C
:100A0000AA1FBB1FA617B70710F0A61BB70B881F9E
:100A1000991F5A95A9F780959095BC01CD0108952D
:100A2000A1E21A2EAA1BBB1BFD010DC0AA1FBB1FF2
:100A3000EE1FFF1FA217B307E407F50720F0A21B64
:100A4000B30BE40BF50B661F771F881F991F1A94D1
:100A500069F760957095809590959B01AC01BD01FB
:080A6000CF010895F894FFCFC7
:020A6800070184
:00000001FF
