:100000000C9434000C9451000C9451000C94510049
:100010000C9451000C9451000C9495000C946D00BC
:100020000C9451000C9451000C9459000C94510004
:100030000C9451000C9451000C9451000C945100FC
:100040000C9451000C9451000C9451000C945100EC
:100050000C9451000C9481000C9451000C945100AC
:100060000C9451000C94510011241FBECFEFD8E026
:10007000DEBFCDBF11E0A0E0B1E0EAE1FDE002C0EB
:1000800005900D92A230B107D9F721E0A2E0B1E0CE
:1000900001C01D92A834B207E1F70E94E2000C945F
:1000A0008B060C940000FC01158624E02487A8959B
:1000B00008951F920F920FB60F9211248F939F9362
:1000C0008BEA94E090930301809302019F918F91BA
:1000D0000F900FBE0F901F9018951F920F920FB6A2
:1000E0000F9211248F939F9389EE95E090930301D3
:1000F000809302019F918F910F900FBE0F901F90E0
:1001000018951F920F920FB60F9211248F939F9301
:1001100086EE92E090930301809302019F918F916C
:100120000F900FBE0F901F9018951F920F920FB651
:100130000F9211248F939F9383E590E09093030196
:10014000809302019F918F910F900FBE0F901F908F
:100150001895FC018485813091F030F08230D1F027
:10016000833021F1B59A0895ECE7F0E08081807F3B
:100170008083E1E8F0E0808180648083F3CFECE766
:10018000F0E08081807F8083E1E8F0E080818F7BF8
:100190008083E8CFECE7F0E08081807F816080831E
:1001A000E1E8F0E0808180648083DCCFECE7F0E080
:1001B0008081807F81608083E1E8F0E080818F7BB7
:1001C0008083D0CFCF93DF93CDB7DEB7E1970FB663
:1001D000F894DEBF0FBECDBFAE01445E5F4F86E137
:1001E000DA011D928A95E9F7FE0131968BE1DF0174
:1001F0001D928A95E9F721E030E03A8329833C8318
:100200002B833E832D8338872F8384E690E09A8763
:10021000898780E090E8988F8F8B8FEF9FE79A8F88
:10022000898F81E08B8FF9ABE8ABF894A89584B700
:10023000877F84BFE0E6F0E08081886180838DE085
:100240008083808180648083EAE7F0E080818F771B
:100250008083808187608083808188608083EBE7F2
:10026000F0E0808180648083EEE7F0E08081876049
:10027000808380B7806480BF80B7846080BF80B790
:10028000826080BFEFE6F0E0808180628083E1E8F9
:10029000F0E0808180688083808181608083ECE7EA
:1002A000F0E08081807F80838081806C8083259ACC
:1002B000209A8AB180668AB98AB188618AB9E1EBED
:1002C000F0E0808187608083E0EBF0E080818260F5
:1002D000808383EF8093B300E0E7F0E08081826069
:1002E0008083789484B5816084BD84B5806884BD42
:1002F00084B5806284BD84B5806484BD94B590610A
:1003000094BD95B5926095BD93B7917F93BFCA0197
:100310000E94A90000E610E0F801808180648083DB
:1003200083B7816083BF889583B78E7F83BFE09159
:100330000201F0910301309779F3CE014C960995B3
:100340001092030110920201E7CF4F925F926F92D9
:100350007F928F929F92AF92BF92CF92DF92EF9255
:10036000FF920F931F93CF93DF93EC017B01690101
:100370004817590708F482C08617970708F490C0F9
:10038000461B570BBA0180E090E0660F771F881F6D
:10039000991F660F771F881F991F660F771F881F89
:1003A000991F660F771F881F991F660F771F881F79
:1003B000991F660F771F881F991F660F771F881F69
:1003C000991F98012C193D09032E000C440B550B65
:1003D0000E94360649015A01BE0180E090E0660F96
:1003E000771F881F991F660F771F881F991F660F39
:1003F000771F881F991F660F771F881F991F660F29
:10040000771F881F991F660F771F881F991F660F18
:10041000771F881F991F0E94360629013A01B701EC
:1004200080E090E0660F771F881F991F660F771F87
:10043000881F991F660F771F881F991F660F771FE8
:10044000881F991F660F771F881F991F660F771FD8
:10045000881F991F660F771F881F991FA501940198
:100460000E9436060D2C000CEE08FF082C193D09E1
:100470004E095F09C201821B930B01C0C801DF91C5
:10048000CF911F910F91FF90EF90DF90CF90BF9091
:10049000AF909F908F907F906F905F904F90089556
:1004A000C901EDCFFC012081318182819381211529
:1004B000310521F040910401442369F1AC019923F5
:1004C0000CF476C021E0403151050CF420E020937B
:1004D0000401582F492F87302FEF920714F457E06B
:1004E0004FEF252F342F2A3F310514F029EF30E04C
:1004F0003187208791958195910987306FEF960715
:1005000014F487E09FEF8A3F910514F089EF90E0A3
:100510009783868308959695982F88279795879532
:100520006FEF70E00E942206629FC001639F900DF2
:10053000729F900D11249923ACF180786FEF70E0D9
:100540000E94220644815581649FC001659F900DE1
:10055000749F900D1124992344F1AC01440F452F51
:10056000441F550BC901841B950B87306FEF96070D
:1005700014F487E09FEF8A3F910514F089EF90E033
:1005800091878087240F351F27308FEF380714F4A9
:1005900027E03FEF2A3F310514F029EF30E03783A1
:1005A0002683089581589F4FC8CF81589F4FD5CF3C
:1005B00044275527481B590B85CF811104C085B1AD
:1005C0008F7D85B9089585B18062FBCFDC01EAE7B4
:1005D000F0E080818F778083ECE7F0E09081907F7E
:1005E00091609083E0910001F0910101209105015B
:1005F0003091060180819181281B390B30930601CF
:1006000020930501809178009091790091838083F7
:10061000280F391F309306012093050181E0E5344E
:10062000F80761F13296F0930101E09300013695ED
:100630002795329522952F7023273F7023274BE073
:10064000429FC001439F900D1124825195409C010F
:10065000C2F035952795359527953595279535958C
:100660002795359527951F963C932E931E972536F3
:10067000310554F481E00E94DD020895E7E0F1E0E5
:10068000D2CF215E3F4FE5CF80E00E94DD0208958A
:10069000811104C085B18E7F85B9089585B18160CF
:1006A000FBCF811102C05B9A08955B980895811178
:1006B00002C05C9A08955C9808950F931F93CF939E
:1006C000DF938C01EB019923ECF081E00E94510350
:1006D000C801112394F087BDDD237CF181E00E94E5
:1006E0005703CE01DD2324F188BD012B69F5CD2B05
:1006F00059F580E00E9448032AC088279927801B6B
:10070000910BE9CF80E00E945103C80199235CF06E
:1007100087BDDD2394F081E00E945703CE01DD23E5
:1007200004F188BD11C088279927801B910BF0CF59
:10073000882799278C1B9D0BD7CF80E00E945703F9
:10074000CE01DD234CF088BD81E00E944803DF919B
:10075000CF911F910F910895882799278C1B9D0B8E
:10076000F2CF882799278C1B9D0BDBCFEF92FF924E
:100770000F931F93CF93DF93CDB7DEB72B970FB6B1
:10078000F894DEBF0FBECDBF8C01FE0131968BE029
:10079000DF011D928A95E9F788E092E09E838D83C0
:1007A0008AE08B87F8018585882309F44AC0608533
:1007B00071856B37F3EA7F0708F080C0663885E6FD
:1007C000780708F4C2C080E090E0660F771F881FAA
:1007D000991F660F771F881F991F660F771F881F45
:1007E000991F660F771F881F991F660F771F881F35
:1007F000991F660F771F881F991F660F771F881F25
:10080000991F29E13FE140E050E00E94360679015E
:10081000A1E2EA1AA2E0FA0AF801628573856B3751
:10082000F3EA7F0708F456C02FE730E03AC0882784
:1008300099278E199F097CC088279927821B930BC3
:100840007EC0E12CF12C20E030E0FC82EB823A8388
:100850002983CE0101960E945202D8011D968C91E7
:100860008130B1F06F81788589859A850E945D031A
:100870002B960FB6F894DEBF0FBECDBFDF91CF91A0
:100880001F910F91FF90EF9008952FE730E0DDCF9B
:100890006F81788589859A850E945D03E9CF20E87C
:1008A0003FEFC701FF202CF00B977CF6E12CF12CD9
:1008B00042C0882799278E199F09F6CF0F2EFFE790
:1008C000EF2EF12CF02DF801628573856B37F3EA7A
:1008D0007F07D8F6663885E6780708F380E090E071
:1008E000660F771F881F991F660F771F881F991F34
:1008F000660F771F881F991F660F771F881F991F24
:10090000660F771F881F991F660F771F881F991F13
:10091000660F771F881F991F29E13FE140E050E0F3
:100920000E94360621523240C701FF200CF47FCFCF
:100930000B970CF4BBCFC90133230CF47DCF0B977D
:100940000CF083CF20E030E080CF6894EE24E7F80D
:10095000FF24FA94B8CFCF93DF93EC018C858230DB
:1009600069F1A0F48823C1F08130F9F48091860008
:10097000909187009B838A8328813981821B930B06
:100980009987888782E08C87A8950FC0833001F112
:10099000843059F41C8609C08091860090918700AC
:1009A0009983888381E08C87A895CE010E94A90055
:1009B000CE010E94B603DF91CF9108958091860009
:1009C000909187009D838C8383E08C87A895EDCFE1
:1009D00080918600909187009F838E832C813D813A
:1009E000821B930B9B878A8784E08C878D8581117E
:1009F00002C081E08D87A895D8CF481759072CF001
:100A0000861797071CF4CB010895CA0108954F92E9
:100A10005F926F927F928F929F92BF92CF92DF925E
:100A2000EF92FF920F931F93CF93DF93CDB7DEB773
:100A300028970FB6F894DEBF0FBECDBF9C0182E0B1
:100A4000898397EF9A8392E19B8395EF9C838D83B3
:100A50008BEF8E8384E08F838FEF8887B901665F89
:100A60007F4FD90152968D919C915397861B970B7E
:100A700095958795EE24E394E80EAE2DA370B0E033
:100A8000AA0FBB1F3D01660E771EF901738A628AA9
:100A9000428D4130D9F0D90154968D919C91559752
:100AA00028960FB6F894DEBF0FBECDBFDF91CF9171
:100AB0001F910F91FF90EF90DF90CF90BF909F908C
:100AC0008F907F906F905F904F900895AE014F5F31
:100AD0005F4F4A012E0155E0450E511C0F2EF5E0E7
:100AE000FF2EF02DF80E00E010E080E090E0D40141
:100AF000BD904D01EE2DE370F0E03596EE0FFF1F37
:100B0000E20FF31F0190F081E02D6B2DAF01640324
:100B10006001659FD00C11248C0D9D1DD201BD90EC
:100B20002D016B2D64036001659FD00C11240C0D09
:100B30001D1DE394FE10DBCFD90118964D915C91F9
:100B40001997F30160817181461B570B12966D91C5
:100B50007C911397469FF001479FF00D569FF00D33
:100B6000112466E070E00E942206E60FF71FD9010B
:100B700014964D915C911597049FC001059F900DAF
:100B8000149F900D1124E81BF90B4D915C91119766
:100B9000E49FC001E59F900DF49F900D11245496A1
:100BA0004D915C915597840F951F58964D915C918E
:100BB000599756966D917C915797481759072CF085
:100BC000AC01861797070CF4AB01F901558B448BE8
:100BD00062CFFC018485843079F0909147019F5F5A
:100BE00090934701911107C08585823020F0848958
:100BF00095890E9407050895AAE7B0E08C91806866
:100C00008C93ACE7B0E08C91807F82608C93E5CFD1
:100C10000F931F93FC01CA011783068371836083BE
:100C2000B8010E94220673836283C901B8010E9441
:100C3000220675836483CF010A96938B828B1F9162
:100C40000F91089597FB072E16F4009407D077FDB7
:100C500009D00E94550607FC05D03EF49095819579
:100C60009F4F0895709561957F4F0895052E97FBCE
:100C70001EF400940E944D0657FD07D00E9469069D
:100C800007FC03D04EF40C944D06509540953095DA
:100C900021953F4F4F4F5F4F0895909580957095E8
:100CA00061957F4F8F4F9F4F0895AA1BBB1B51E14A
:100CB00007C0AA1FBB1FA617B70710F0A61BB70BCC
:100CC000881F991F5A95A9F780959095BC01CD0171
:100CD0000895A1E21A2EAA1BBB1BFD010DC0AA1F7D
:100CE000BB1FEE1FFF1FA217B307E407F50720F095
:100CF000A21BB30BE40BF50B661F771F881F991F10
:100D00001A9469F760957095809590959B01AC0158
:0A0D1000BD01CF010895F894FFCF54
:020D1A000701CF
:00000001FF
