:100000000C9434000C9451000C9451000C94510049
:100010000C9451000C9451000C94E6000C94BE001A
:100020000C9451000C9451000C94AA000C945100B3
:100030000C9451000C9451000C9451000C945100FC
:100040000C9451000C9451000C9451000C945100EC
:100050000C9451000C94D2000C9451000C9451005B
:100060000C9451000C94510011241FBECFEFD8E026
:10007000DEBFCDBF11E0A0E0B1E0E6E9F0E102C0F3
:1000800005900D92A830B107D9F721E0A8E0B1E0C2
:1000900001C01D92A133B207E1F70E94DC060C9467
:1000A00049080C940000DC01EAE7F0E080818F77DA
:1000B0008083ECE7F0E09081907F91609083E09105
:1000C0000001F09101018081918120910B0130911B
:1000D0000C01281B390B30930C0120930B018091EC
:1000E00078009091790091838083280F391F309395
:1000F0000C0120930B0181E0EB32F80731F13296CD
:10010000F0930101E09300013595279535952795EA
:100110003595279535952795265731094BE0429F10
:10012000C001439F900D1124992394F095958795D4
:1001300095958795959587959595879595958795A7
:1001400056969C938E9355970895EDE0F1E0D8CFA5
:100150004F96ECCF1F920F920FB60F9211248F93F0
:100160009F9389E294E090930901809308019F9105
:100170008F910F900FBE0F901F9018951F920F92A6
:100180000FB60F9211248F939F938AEA95E0909374
:100190000901809308019F918F910F900FBE0F90DE
:1001A0001F9018951F920F920FB60F9211248F93E4
:1001B0009F9383E590E090930901809308019F91BC
:1001C0008F910F900FBE0F901F9018951F920F9256
:1001D0000FB60F9211248F939F9381E892E0909332
:1001E0000901809308019F918F910F900FBE0F908E
:1001F0001F901895FC01858596858230910579F1CF
:1002000078F40097F1F0019731F5ECE7F0E08081A8
:10021000807F8083E1E8F0E080818F7B80831BC05A
:100220008330910541F10497B1F4EAE7F0E0808171
:1002300080688083ECE7F0E08081807F826080834B
:100240000895ECE7F0E08081807F8083E1E8F0E0D2
:1002500080818064808386B3806286BB0895ECE7EA
:10026000F0E08081807F81608083E1E8F0E0808140
:1002700080648083F0CFECE7F0E08081807F816054
:100280008083EAE7F0E080818F778083E1E8F0E027
:1002900080818F7B8083DFCF4F925F926F927F92BE
:1002A0008F929F92AF92BF92CF92DF92EF92FF9286
:1002B0000F931F93CF93DF9300D000D0CDB7DEB75D
:1002C0002B013C0129833A834B835C83E616F706B6
:1002D000080719070CF487C062177307840795078E
:1002E0000CF49AC0C801B701621B730B840B950B09
:1002F000660F771F881F991F660F771F881F991F2A
:10030000660F771F881F991F660F771F881F991F19
:10031000660F771F881F991F660F771F881F991F09
:10032000660F771F881F991F2F89388D498D5A8D29
:100330002A193B094C095D090E94D20779018A01FB
:1003400069817A818B819C81660F771F881F991F35
:10035000660F771F881F991F660F771F881F991FC9
:10036000660F771F881F991F660F771F881F991FB9
:10037000660F771F881F991F660F771F881F991FA9
:100380000E94D207DA01C9018A199B09AC09BD098B
:100390004C015D01440C551C661C771C440C551C1B
:1003A000661C771CC301B201660F771F881F991F57
:1003B000660F771F881F991F660F771F881F991F69
:1003C000660F771F881F991F660F771F881F991F59
:1003D000A80197010E94D207CA01B90168197909D9
:1003E0008A099B0904C06F89788D898D9A8D0F9039
:1003F0000F900F900F90DF91CF911F910F91FF9071
:10040000EF90DF90CF90BF90AF909F908F907F90B4
:100410006F905F904F900895C601B501E8CF8111AC
:1004200004C085B18F7D85B9089585B18062FBCF09
:10043000811104C085B18E7F85B9089585B1816031
:10044000FBCF811104C08BB188608BB908958BB14B
:10045000877F8BB90895811104C08BB180618BB9FE
:1004600008958BB18F7E8BB908950F931F93CF930F
:10047000DF93EC018B0199230CF181E00E942102B2
:10048000CE01DD23B4F087BD112354F181E00E9439
:100490002B02C8011123FCF088BDCD2B11F4012BD8
:1004A00061F181E00E941802DF91CF911F910F91BD
:1004B0000895882799278C1B9D0BE5CF80E00E942B
:1004C0002102CE01DD2314F087BDDECF88279927D6
:1004D0008C1B9D0BF9CF88279927801B910BDCCFB4
:1004E00080E00E942B02C801112314F088BDD5CFF3
:1004F00088279927801B910BF9CF80E00E94180272
:10050000D3CFCF93DF93EC018F859889029760F06A
:100510008F859889892B59F084E090E09E878D879C
:10052000A895DF91CF910895188A1F86F1CF60E0DA
:1005300070E080E090E00E943502EECFEF92FF92F3
:100540000F931F93E616F7060807190744F0621782
:100550007307840795072CF4CA01B90102C0C801CA
:10056000B7011F910F91FF90EF9008958F929F9286
:10057000AF92BF92CF92DF92EF92FF920F931F93B1
:10058000CF93DF936C01FC01A080B180C281D38145
:10059000CE019695982F8827979587956FEF70E0F5
:1005A0000E94BE07A69EC001A79E900DB69E900D0C
:1005B000112499230CF45AC0F601248135818078E6
:1005C0006FEF70E00E94BE07269F4001279F900CAE
:1005D000369F900C112499200CF44BC0880C892C68
:1005E000881C9908A114B10429F080910A0188237C
:1005F00009F443C09E01DD230CF465C081E0203185
:1006000031050CF480E080930A01BE010D2E000C30
:10061000880B990B19EFE12EF12C00E010E027E098
:100620003FEF4FEF5FEF0E949E02F60171876087F8
:10063000662777276C1B7D0B072E000C880B990B08
:1006400027E03FEF4FEF5FEF0E949E02F6017783B6
:100650006683DF91CF911F910F91FF90EF90DF9014
:10066000CF90BF90AF909F908F90089581589F4FEB
:10067000A3CFFFE78F0E911CB1CFB501681979099F
:10068000072E000C880B990B19EFE12EF12C00E0DE
:1006900010E027E03FEF4FEF5FEF0E949E02F60170
:1006A00071876087B501680D791D072E000C880BD6
:1006B000990B27E03FEF4FEF5FEF0E949E02F6019C
:1006C00077836683C6CF222733272C1B3D0B96CF1B
:1006D0005F926F927F928F929F92AF92BF92CF92D2
:1006E000DF92EF92FF920F931F93CF93DF93CDB7DB
:1006F000DEB72B970FB6F894DEBF0FBECDBF3C011F
:10070000FE0131968BE0DF011D928A95E9F788E0C2
:1007100092E09E838D838AE08B87F30187859089A1
:10072000892B09F47AC06085718580E090E01F9282
:100730001F921F920F2EFFE75F2EF02D5F9268949D
:10074000AA24A7F8BB24BA94CB2CDB2C1AE7E12E01
:1007500013EAF12E00E010E026E835E640E050E034
:100760000E944C010F900F900F900F904B01D301FE
:100770001A966D917C911B9780E090E01F921F92DA
:100780001F925F9226E835E640E050E00E944C015F
:100790000F900F900F900F90C40199200CF442C05D
:1007A0000B9714F4812C912CCB0177230CF43FC0D0
:1007B0000B9714F460E070E09C828B827A836983EB
:1007C000CE0101960E94B602F301878590890197B8
:1007D00099F189859A85892B21F48F819885892BB8
:1007E00091F1D3011C961C9280E00E940F022B967F
:1007F0000FB6F894DEBF0FBECDBFDF91CF911F9132
:100800000F91FF90EF90DF90CF90BF90AF909F90AF
:100810008F907F906F905F90089560E070E0812CE2
:10082000912CBACF8827992788199909B9CF882799
:100830009927861B970BBCCF6F81788589859A8510
:100840000E943502C6CF81E0F30184870E940F0227
:10085000CECFCF93DF93EC018F85988982309105BD
:1008600018F0DF91CF9108952D853E852230310516
:10087000A1F1C0F421153105F1F02130310531F538
:1008800080918600909187009B838A83288139819B
:10089000821B930B9987888782E090E09E878D87E3
:1008A000A89514C02330310521F12430310571F4AD
:1008B0001E861D860BC080918600909187009983CB
:1008C000888381E090E09E878D87A895CE010E9465
:1008D000FA00CE010E946803C4CF809186009091F7
:1008E00087009D838C8383E090E09E878D87A89509
:1008F000EDCF20918600309187003F832E834C817D
:100900005D81241B350B3B872A8724E030E03E873E
:100910002D87892B21F481E090E0988B8F87A89513
:10092000D5CF2F923F924F925F926F927F928F928C
:100930009F92AF92BF92CF92DF92EF92FF920F936E
:100940001F93CF93DF93CDB7DEB72C970FB6F894F4
:10095000DEBF0FBECDBF6C0182E0898397EF9A8323
:1009600092E19B8395EF9C838D838BEF8E8384E054
:100970008F838FEF8887D60152968D919C915397E4
:100980009601265F3F4F821B930B95958795E1E07B
:10099000E80FEA878E2F83786CF1880F990BA901F5
:1009A000480F591F5C874B87D60153965C934E9333
:1009B00052975A968C91813009F469C0F601848966
:1009C00095892C960FB6F894DEBF0FBECDBFDF9190
:1009D000CF911F910F91FF90EF90DF90CF90BF903C
:1009E000AF909F908F907F906F905F904F903F90CF
:1009F0002F90089581508C6F8F5FCFCF0E2E000CFB
:100A0000FF0B3596EE0FFF1FEC0DFD1DE080F18012
:100A10000F2C000C000B110BC801B7010E94AE0790
:100A2000460E571E681E791EE5E0F0E0EC0FFD1F34
:100A3000E20DF31DA0810A2E000CBB0BA80197014B
:100A40000E94FC07860E971EA81EB91EFA85FF5F3E
:100A5000FA87E985EF5FE987F985F43004F5E985E0
:100A60002E2EEE0F3308E1E0F0E0EC0FFD1FE20D5B
:100A7000F31D2081022E000C330B440B550BEA852D
:100A8000E3780CF0BBCFE150EC6FEF5FB7CF198686
:100A9000812C912C5401412C512C3201DDCFC3010A
:100AA000B20126E030E040E050E00E94D207290188
:100AB0003A01D60118962D913C911997032E000CFE
:100AC000440B550BEB85FC8580819181092E000C30
:100AD000AA0BBB0B281B390B4A0B5B0BD6010D91E4
:100AE0001C91119712960D90BC91A02D0E94FC07AD
:100AF000460E571E681E791EF601A481B581A50118
:100B000094010E94FC07A3019201261B370B480B9E
:100B1000590BD8010E94FC07E08CF18C268937899B
:100B200084889588092C000CAA08BB080F2C000C9F
:100B3000000B110B032E000C440B550B680D791D97
:100B40008A1D9B1D0E949E02D60155967C936E9332
:100B5000549734CFAF92BF92CF92DF92EF92FF9231
:100B60000F931F93CF93DF93EC018D859E850497A0
:100B700009F45DC080913001805F8093300188234B
:100B800009F459C080912F01882309F4CBC0489BF8
:100B9000B2C080910701883008F0ADC08F5F8093AC
:100BA00007018091070181110FC08C85813009F404
:100BB000ADC08F859889029720F0188A1F86109201
:100BC0002F0188E0809307018F859889009741F471
:100BD000109205011092040110920301109202017B
:100BE000029709F4BDC080E095E0909303018093E3
:100BF0000201892B11F4188A1F868F859889039723
:100C000009F4B4C080EC93E0909305018093040153
:100C1000892B11F4188A1F86DF91CF911F910F91B4
:100C2000FF90EF90DF90CF90BF90AF900895CE01EE
:100C30000E94FA009FCFEB8DFC8D0288F389E02D96
:100C40008D899E89918380838B8D9C8D0E949104D8
:100C50008F859889029708F449C0EB8DFC8DE08C54
:100C6000F18C268937896489758971956195710937
:100C70000F2C000C000B110B032E000C440B550B1A
:100C8000072E000C880B990B1F921F921F921F9228
:100C90000F2EF7E0AF2EBB24BA94CB2CDB2CF02D1B
:100CA0000E944C010F900F900F900F90DC01CB0130
:100CB000BC010E94350284E090E09E878D87A89554
:100CC000EB8DFC8D0288F389E02D208131818989AB
:100CD0009A894B895C89841B950B281739070CF47A
:100CE00051CF83E090E0988B8F874CCFEB8DFC8DBC
:100CF000158A148A47CF489954CF809107018823D9
:100D000009F44FCF8150809307014BCF8F8598898D
:100D1000029708F04ECF82E090E0988B8F87109278
:100D20002F014FCF489912C080910601883070F48E
:100D30008F5F8093060180910601811145CF81E08C
:100D400080932F0188E0809306013ECF489BF3CF2C
:100D500080910601882379F3815080930601EBCFBF
:100D6000809102019091030101973FCF809104018E
:100D700090910501019748CF0F931F93FC011783B2
:100D8000068371836083049FC001059F900D149FAB
:100D9000900D112493838283029FC001039F900DC5
:100DA000129F900D112495838483CF010A96938B13
:100DB000828B1F910F910895CF93DF93CDB7DEB74C
:100DC000E8970FB6F894DEBF0FBECDBF7E018CE171
:100DD000E80EF11C8DE1F70111928A95E9F724E6FE
:100DE00030E03EA72DA7CE0101964BE1FC01119208
:100DF0004A95E9F740EF58ED588F4F8B40E157E2A5
:100E00005A8F498F41E04B8F98AF8FAB3A87298734
:100E100001E010E022E030E042E050E064E170E008
:100E20000E94BC06F894A89584B7877F84BFE0E64B
:100E3000F0E08081886180838DE0808380818064A0
:100E40008083EAE7F0E080818F778083808187600C
:100E50008083808188608083EBE7F0E0808180641C
:100E60008083EEE7F0E080818760808380B78064D4
:100E700080BF80B7846080BF80B7826080BFEFE6AC
:100E8000F0E0808180628083E1E8F0E0808180682A
:100E90008083808181608083ECE7F0E08081807FC7
:100EA00080838081806C808384B18E7F84B98BB194
:100EB00081608BB984B1806284B984B1816084B966
:100EC0008AB180668AB98AB188618AB984B1816041
:100ED00084B9E1EBF0E0808187608083E0EBF0E0B3
:100EE00080818260808383EF8093B300E0E7F0E04D
:100EF000808182608083789484B5816084BD84B56C
:100F0000806884BD84B5806284BD84B5806484BDFE
:100F100084B5806184BD85B5826085BD83B7817FDE
:100F200083BFC7010E94FA00E0E6F0E080818064A0
:100F3000808383B7816083BF889583B78E7F83BFAB
:100F4000E0910801F0910901309771F3CE014C96C0
:100F500009951092090110920801E6CFDB018F93E9
:100F60009F930E94F107BF91AF91A29F800D911DA9
:100F7000A39F900DB29F900D1124089597FB072E0B
:100F800016F4009407D077FD09D00E94040807FCEE
:100F900005D03EF4909581959F4F08957095619589
:100FA0007F4F0895052E97FB1EF400940E94E907D9
:100FB00057FD07D00E94180807FC03D04EF40C948C
:100FC000E90750954095309521953F4F4F4F5F4F22
:100FD000089590958095709561957F4F8F4F9F4FA5
:100FE00008950E943A08A59F900DB49F900DA49F6C
:100FF000800D911D11240895B7FF0C94F1070E94F4
:10100000F107821B930B0895AA1BBB1B51E107C07C
:10101000AA1FBB1FA617B70710F0A61BB70B881F88
:10102000991F5A95A9F780959095BC01CD01089517
:10103000A1E21A2EAA1BBB1BFD010DC0AA1FBB1FDC
:10104000EE1FFF1FA217B307E407F50720F0A21B4E
:10105000B30BE40BF50B661F771F881F991F1A94BB
:1010600069F760957095809590959B01AC01BD01E5
:10107000CF010895A29FB001B39FC001A39F700D3F
:10108000811D1124911DB29F700D811D1124911D90
:061090000895F894FFCF63
:081096000D010005C00308086C
:00000001FF
