:100000000C9434000C9451000C9451000C94510049
:100010000C9451000C9451000C94F1020C94B70212
:100020000C9451000C9451000C949A020C945100C1
:100030000C9451000C9451000C9451000C945100FC
:100040000C9451000C9451000C9451000C945100EC
:100050000C9451000C94D4020C9451000C94510057
:100060000C9451000C94510011241FBECFEFD8E026
:10007000DEBFCDBF11E0A0E0B1E0E2E4F3E102C0F9
:1000800005900D92A230B107D9F721E0A2E0B1E0CE
:1000900001C01D92AA34B207E1F70E9453000C94EC
:1000A0009F090C9400000F931F93CF93DF93CDB75C
:1000B000DEB7CA54D1090FB6F894DEBF0FBECDBF6C
:1000C0008AE79AE39E838D838AE89BE698878F83ED
:1000D00080E090E89A8789878FEF9FE79C878B87DE
:1000E00024E1CE01C796FC01322F11923A95E9F72F
:1000F0002BE1CE014C96FC01322F11923A95E9F793
:1001000081E090E09D8F8C8F81E090E09F8F8E8FBB
:1001100081E090E099A388A381E090E09BA38AA36B
:1001200080E090E89BAB8AAB8FEF9FE79DAB8CABF9
:1001300081E08EABCE01875B9F4F9E01245E3F4FD7
:10014000FC0131832083CE01C7969E878D872BE0EB
:10015000CE014196FC01322F11923A95E9F78AE0DF
:100160008B8FCE014196988B8F87F8948AE790E029
:100170002AE730E0F90120812F77FC0120838AE70C
:1001800090E02AE730E0F9012081287FFC012083FC
:100190008AE790E02AE730E0F9012081277FFC011F
:1001A00020838BE790E02BE730E0F9012081206489
:1001B000FC0120838EE790E02EE730E0F9012081FA
:1001C0002760FC01208380E590E020E530E0F90124
:1001D00020812064FC01208380E590E020E530E070
:1001E000F90120812460FC01208380E590E020E576
:1001F00030E0F90120812260FC0120838FE690E04D
:100200002FE630E0F90120812062FC01208381E8A3
:1002100090E021E830E0F90120812068FC01208392
:1002200081E890E021E830E0F90120812160FC01C3
:1002300020838CE790E02CE730E0F9012081207FDB
:10024000FC0120838CE790E02CE730E0F90120816D
:100250002F7BFC01208381EB90E021EB30E0F90162
:1002600020812760FC01208380EB90E020EB30E0D0
:10027000F90120812260FC01208383EB90E023EFD1
:10028000FC01208380E790E020E730E0F901208145
:100290002260FC01208384E290E024E230E0F90156
:1002A00020812062FC01208384E290E024E230E09F
:1002B000F90120812160FC0120838AE290E02AE29A
:1002C00030E0F90120812066FC0120838AE290E081
:1002D0002AE230E0F90120812861FC01208380E6D8
:1002E00090E020E630E0F90120812861FC012083C4
:1002F00080E690E025E4FC012083789484E490E09B
:1003000024E430E0F90120812160FC01208384E4B1
:1003100090E024E430E0F90120812068FC01208392
:1003200084E490E024E430E0F90120812062FC01C3
:10033000208384E490E024E430E0F901208120640B
:10034000FC01208384E490E024E430E0F901208182
:100350002061FC01208385E490E025E430E0F90190
:1003600020812260FC01208383E590E023E530E0DA
:10037000F9012081217FFC01208380E00E94D206C8
:100380008D859E850E945E0483E590E023E530E044
:10039000F90120812160FC012083889583E590E0AC
:1003A00023E530E0F90120812E7FFC01208380913C
:1003B000020190910301892B61F02091020130919B
:1003C00003018D859E85F901099510920301109214
:1003D00002018D859E85FC018385882329F18D8509
:1003E0009E85FC0186819781EB85FC8529853A8570
:1003F0004F8158856D817E818F010E94BC049A8354
:1004000089838D859E85FC0180859185EB85FC85A2
:1004100029853A854F8158856D817E818F010E94A3
:10042000BC049C838B8304C01A8219821C821B82A9
:1004300089819A8199231CF49195819591099C0158
:100440008F859889FC018285082E000C990B8217F4
:1004500093071CF489819A8102C080E090E09A831E
:1004600089838B819C8199231CF4919581959109B5
:100470009C018F859889FC018285082E000C990BC0
:10048000821793071CF48B819C8102C080E090E06E
:100490009C838B838F85988929813A81FC013383E2
:1004A00022838F8598892B813C81FC0131832083B5
:1004B0008F85988924E630E0FC01358324838F857D
:1004C00098890E9475058D859E85FC018385813004
:1004D00071F48F859889FC01268137818F859889F1
:1004E000FC0180859185B9010E946F060DC08F8542
:1004F0009889FC01268137818F859889FC01808548
:100500009185B9010E946F068F859889FC018085CD
:100510009185892B39F48F859889FC018681978193
:10052000892B21F080E00E94D20603C081E00E9466
:10053000D2062ACF1F920F9200905F000F921124D3
:100540008F939F93CF93DF93CDB7DEB78EE093E089
:1005500090930301809302010000DF91CF919F915E
:100560008F910F9000925F000F901F9018951F922F
:100570000F9200905F000F9211248F939F93CF935F
:10058000DF93CDB7DEB782EA93E0909303018093C7
:1005900002010000DF91CF919F918F910F90009207
:1005A0005F000F901F9018951F920F9200905F00B0
:1005B0000F9211248F939F93CF93DF93CDB7DEB724
:1005C0008FED93E090930301809302010000DF918F
:1005D000CF919F918F910F9000925F000F901F908D
:1005E00018951F920F9200905F000F9211248F9325
:1005F0009F93CF93DF93CDB7DEB789E893E09093D5
:100600000301809302010000DF91CF919F918F91B0
:100610000F9000925F000F901F901895CF93DF937B
:1006200000D0CDB7DEB79A83898389819A81FC0196
:100630008285882F90E081309105B1F0823091055C
:10064000A1F1892B09F05BC086E890E0FC012081D4
:10065000318189819A81FC013183208389819A814A
:1006600021E0FC0122874BC086E890E0FC0120815C
:10067000318189819A81FC013383228389819A8126
:10068000FC012281338189819A81FC0180819181E1
:10069000281B390B89819A81FC0131872087898148
:1006A0009A8122E0FC0122872AC086E890E0FC01C2
:1006B0002081318189819A81FC013583248389815C
:1006C0009A81FC012481358189819A81FC01828192
:1006D0009381281B390B89819A81FC0137832683FA
:1006E00089819A81FC01128689819A81FC01838526
:1006F000882329F489819A8121E0FC01238789815B
:100700009A810E945E0400000F900F90DF91CF91BC
:100710000895CF93DF9300D0CDB7DEB79A83898356
:1007200089819A81FC01138689819A81FC01128654
:1007300089819A810E945E0400000F900F90DF91E2
:10074000CF910895CF93DF9300D0CDB7DEB79A83D2
:10075000898389819A81FC018285882399F48AE7BB
:1007600090E02AE730E0F90120812068FC01208335
:100770008CE790E02CE730E0F9012081207F2260B7
:10078000FC012083809104018F5F8093040180919C
:100790000401882371F489819A81FC018385823068
:1007A00038F089819A81FC01828993890E947607B9
:1007B000A89500000F900F90DF91CF910895CF93EF
:1007C000DF9300D000D0CDB7DEB79C838B8387E466
:1007D00091E09A8389838AE790E02AE730E0F90183
:1007E00020812F77FC0120838091000190910101ED
:1007F00028E730E0F9012081422F50E029E730E07E
:10080000F9012081222F30E0322F222724233523A3
:10081000FC01318320838091000190910101FC0152
:10082000208131818091470190914801820F931F6F
:10083000909348018093470120910001309101017C
:1008400089819A812817390731F0809100019091B0
:100850000101029602C085E091E09093010180932E
:100860000001209147013091480180910001909151
:100870000101FC0180819181A901481B590BCA012A
:1008800090934801809347018091470190914801DE
:100890009C0136952795329522952F7023273F701E
:1008A00023278B819C81FC013587248700000F90D2
:1008B0000F900F900F90DF91CF910895CF93DF931A
:1008C00000D0CDB7DEB79A83898389819A81FC01F4
:1008D0008285882F90E081309105C9F082309105A2
:1008E00051F1892BD1F58CE790E02CE730E0F9014C
:1008F0002081207F2160FC01208381E890E021E8B5
:1009000030E0F90120812064FC01208326C08CE7BF
:1009100090E02CE730E0F9012081207F2160FC018C
:10092000208381E890E021E830E0F90120812F7BED
:10093000FC01208312C08CE790E02CE730E0F90145
:100940002081207FFC01208381E890E021E830E0D5
:10095000F90120812F7BFC01208386E390E026E3D0
:1009600030E0F90120812062FC01208300000F901B
:100970000F90DF91CF910895EF92FF920F931F9305
:10098000CF93DF93CDB7DEB766970FB6F894DEBF8F
:100990000FBECDBF9E878D87788B6F875A8B498B13
:1009A0003C8B2B8B1E8B0D8B2D853E8589899A89DF
:1009B0008217930718F48D899E898AC02D853E85FC
:1009C0008F8598892817390718F48B899C8980C0EE
:1009D00080E890E0A0E0B0E089839A83AB83BC8399
:1009E00029893A898F8598897901E81AF90AC70116
:1009F0009C0140E050E089819A81AB81BC81BC01BF
:100A0000CD010E940C097B018C012D893E898B89C7
:100A10009C89A901481B590BCA019C01990F440BE1
:100A2000550BC801B7010E943009DA01C9018D8355
:100A30009E83AF83B8878F8598899C0140E050E002
:100A400089819A81AB81BC81BC01CD010E940C09D6
:100A5000DC01CB012D813E814F815885BC01CD0148
:100A60000E943009DA01C9019C01AD018B899C8982
:100A7000092E000CAA0BBB0B79018A01E81AF90AAE
:100A80000A0B1B0BD801C70189879A87AB87BC87E4
:100A90008D859E859C0140E050E089819A81AB81E3
:100AA000BC81BC01CD010E940C09DC01CB012D8170
:100AB0003E814F815885BC01CD010E943009DA0189
:100AC000C9019C0189859A858901081B190BC801F8
:100AD00066960FB6F894DEBF0FBECDBFDF91CF9103
:100AE0001F910F91FF90EF900895CF93DF93CDB7B3
:100AF000DEB72F970FB6F894DEBF0FBECDBF9F872E
:100B00008E878E859F85FC01808191819A83898360
:100B10008FE08B8389EF90E09D838C8380E890E069
:100B20009F838E838E859F85FC01228133818E81F8
:100B30009F81289FA001299F500D389F500D11249F
:100B40002FEF30E0CA01B9010E941C09CB019C01C2
:100B500089819A81289FA001299F500D389F500DAF
:100B600011242E813F81CA01B9010E941C09CB01C9
:100B7000998788878E859F85FC01248135814E81E8
:100B80005F8188859985489FB001499F700D589F66
:100B9000700D11244FEF50E0CB01BA010E941C09E7
:100BA000CB01AC01249FC001259F900D349F900D77
:100BB00011242E813F81B9010E941C09CB019B8722
:100BC0008A878E859F85FC01828193819D878C8792
:100BD0008E859F85FC0180819181892BA9F180916F
:100BE0004901882389F58C819D8166277727681BB9
:100BF000790B29813A818A859B85A901481B590B6C
:100C0000CA012C813D81A9010E944E079C018E855D
:100C10009F85FC01318720878C819D8166277727FE
:100C2000681B790B29813A818A859B85820F931FE6
:100C30002C813D81A9010E944E079C018E859F85D4
:100C4000FC013783268341C08C859D8599231CF444
:100C50009195819591099C018B81082E000C990B2F
:100C600041E0821793070CF040E0842F8093490104
:100C70008C819D8122273327281B390B4C815D8174
:100C80008C859D85B9010E944E079C018E859F85AC
:100C9000FC01318720878C859D85919581959109EF
:100CA0009D878C878C819D8122273327281B390BB8
:100CB0004C815D818C859D85B9010E944E079C0108
:100CC0008E859F85FC013783268300002F960FB603
:100CD000F894DEBF0FBECDBFDF91CF910895CF93C3
:100CE000DF9300D000D0CDB7DEB79A8389837C83B1
:100CF0006B8389819A8199237CF081E00E940C07A3
:100D000027E430E089819A8199231CF4919581959B
:100D10009109F90180830EC080E00E940C0727E44E
:100D200030E089819A8199231CF4919581959109EC
:100D3000F90180838B819C8199237CF081E00E9462
:100D40002D0728E430E08B819C8199231CF4919538
:100D500081959109F90180830EC080E00E942D07E2
:100D600028E430E08B819C8199231CF49195819536
:100D70009109F901808389819A81892B21F48B81E2
:100D80009C81892B21F081E00E94EF0603C080E066
:100D90000E94EF0600000F900F900F900F90DF91D0
:100DA000CF910895CF93DF931F92CDB7DEB789839C
:100DB00085E290E02981222331F025E230E0F9013B
:100DC0002081206205C025E230E0F90120812F7DDD
:100DD000FC01208300000F90DF91CF910895CF9305
:100DE000DF931F92CDB7DEB7898385E290E029813A
:100DF000222331F025E230E0F9012081216005C095
:100E000025E230E0F90120812E7FFC0120830000E3
:100E10000F90DF91CF910895CF93DF931F92CDB7BD
:100E2000DEB789838981882351F08BE290E02BE241
:100E300030E0F9012081277FFC01208309C08BE28B
:100E400090E02BE230E0F90120812860FC01208352
:100E500000000F90DF91CF910895CF93DF931F9201
:100E6000CDB7DEB789838981882351F08BE290E08A
:100E70002BE230E0F90120812F7EFC01208309C0A4
:100E80008BE290E02BE230E0F90120812061FC014F
:100E9000208300000F90DF91CF910895CF93DF93CF
:100EA00000D000D000D0CDB7DEB79A8389837C8391
:100EB0006B835E834D8329813A818D819E81821768
:100EC00093074CF02B813C8189819A81821793078B
:100ED00024F4C90102C08D819E8126960FB6F89434
:100EE000DEBF0FBECDBFDF91CF910895CF93DF93CB
:100EF000CDB7DEB762970FB6F894DEBF0FBECDBF99
:100F00009A8B898B82E0898787EF8A8782E18B873A
:100F100085EF8C8782E08D878BEF8E8784E08F87CB
:100F20008FEF888B89899A89DC0152968D919C91EB
:100F300053979C0189899A890A96F901E81BF90B54
:100F4000CF0195958795898389899A899C01265F28
:100F50003F4F89818F5F89838981882F90E08370DB
:100F60009927880F991F280F391F89899A89DC01D1
:100F700053963C932E93529789899A89FC01828DCE
:100F8000813009F0DFC01B821A821D821C821E8202
:100F90005AC08E81082E000C990B9E01275F3F4F8F
:100FA000820F931FDC018C91482F880F550B89818C
:100FB000882F90E08370992729893A890596880FB0
:100FC000991F820F931FFC0120813181429FC00134
:100FD000439F900D529F900D11242A813B81820FD7
:100FE000931F9B838A838E81082E000C990B9E0190
:100FF000235F3F4F820F931FDC018C91482F880F96
:10100000550B8981882F90E08370992729893A8927
:101010000596880F991F820F931FFC012081318153
:10102000429FC001439F900D529F900D11242C812F
:101030003D81820F931F9D838C8389818F5F89837C
:101040008E818F5F8E838E8184300CF4A2CF8A8153
:101050009B8126E030E0B9010E941C09CB019B83F3
:101060008A8389899A89DC0118962D913C91199778
:1010700089899A89FC0182899389DC018D919C91EF
:10108000F901E81BF90BCF0198878F8389899A8929
:10109000DC0154962D913C91559789899A89FC01E0
:1010A0006081718189899A89DC011296ED91FC91A8
:1010B00013978F819885E89FA001E99F500DF89FB5
:1010C000500D11248A819B81480F591F89899A8963
:1010D000FC01A481B581EC81FD81AE9FC001AF9F71
:1010E000900DBE9F900D1124481B590B649FC001A9
:1010F000659F900D749F900D1124280F391F8989C9
:101100009A89DC0155963C932E93549789899A8944
:10111000FC01408D518D89899A89DC0156962D916B
:101120003C91579789899A89FC0184899589B901ED
:101130000E944E079C0189899A89DC0155963C934F
:101140002E93549789899A89FC018489958962969E
:101150000FB6F894DEBF0FBECDBFDF91CF910895DB
:101160000F931F93CF93DF93CDB7DEB72A970FB6B8
:10117000F894DEBF0FBECDBF9A8389837C836B83D7
:101180005E834D8338872F831A87098789819A81E7
:1011900029853A85FC013783268389819A812B81B1
:1011A0003C81FC013183208389819A81FC01268165
:1011B00037818D819E81B9010E941C09CB019C0160
:1011C00089819A81FC013383228389819A81FC0180
:1011D000268137818F819885B9010E941C09CB0136
:1011E0009C0189819A81FC013583248389819A81BC
:1011F0009C01265F3F4F89819A81FC01338B228BB2
:1012000000002A960FB6F894DEBF0FBECDBFDF9167
:10121000CF911F910F910895DB018F939F930E94AF
:101220004F09BF91AF91A29F800D911DA39F900D7B
:10123000B29F900D1124089597FB072E16F4009489
:1012400007D077FD09D00E945A0907FC05D03EF46B
:10125000909581959F4F0895709561957F4F089562
:10126000052E97FB1EF400940E94470957FD07D0F6
:101270000E946E0907FC03D04EF40C944709509568
:101280004095309521953F4F4F4F5F4F0895909572
:101290008095709561957F4F8F4F9F4F08950E9465
:1012A0009009A59F900DB49F900DA49F800D911D56
:1012B00011240895AA1BBB1B51E107C0AA1FBB1F25
:1012C000A617B70710F0A61BB70B881F991F5A95D2
:1012D000A9F780959095BC01CD010895A1E21A2E41
:1012E000AA1BBB1BFD010DC0AA1FBB1FEE1FFF1FCA
:1012F000A217B307E407F50720F0A21BB30BE40B1A
:10130000F50B661F771F881F991F1A9469F7609560
:101310007095809590959B01AC01BD01CF0108951A
:10132000A29FB001B39FC001A39F700D811D112426
:10133000911DB29F700D811D1124911D0895F89487
:02134000FFCFDD
:021342000501A3
:00000001FF
