:100000000C9434000C9451000C9451000C94510049
:100010000C9451000C9451000C94E5000C94BD001C
:100020000C9451000C9451000C94A9000C945100B4
:100030000C9451000C9451000C9451000C945100FC
:100040000C9451000C9451000C9451000C945100EC
:100050000C9451000C94D1000C9451000C9451005C
:100060000C9451000C94510011241FBECFEFD8E026
:10007000DEBFCDBF11E0A0E0B1E0E4E1F8E002C0F6
:1000800005900D92A230B107D9F721E0A2E0B1E0CE
:1000900001C01D92AC34B207E1F70E94BC020C947F
:1000A00008040C940000FC01828581110BC0809132
:1000B0007A00806880937A0080917C00807F8260E3
:1000C00080937C0080914B018F5F80934B0190E087
:1000D0008F77892B09F4A8950895DC0190917A0017
:1000E0009F7790937A00E0910001F0910101809157
:1000F0007800809179001182108240910501509121
:100100000601609107017091080181E0EB34F80766
:1001100011F0329602C0E9E0F1E0F0930101E093C2
:10012000000180819181481B590B6109710940933D
:10013000050150930601609307017093080185E063
:10014000440F551F8A95E1F71D965C934E931C97BB
:1001500008951F920F920FB60F9211248F939F93C1
:100160008BE191E090930301809302019F918F9125
:100170000F900FBE0F901F9018951F920F920FB601
:100180000F9211248F939F9383E590E09093030146
:10019000809302019F918F910F900FBE0F901F903F
:1001A00018951F920F920FB60F9211248F939F9361
:1001B0008DE690E090930301809302019F918F91CF
:1001C0000F900FBE0F901F9018951F920F920FB6B1
:1001D0000F9211248F939F9380E591E090930301F8
:1001E000809302019F918F910F900FBE0F901F90EF
:1001F0001895FC018285813089F030F08230C9F495
:1002000080917C00807F0EC080917C00807F816027
:1002100080937C0080918100806409C080917C0083
:10022000807F816080937C00809181008F7B8093B0
:100230008100B59A0895FC018285813061F018F043
:100240008230C1F02AC0809186009091870091830E
:10025000808381E00DC08091860090918700938318
:10026000828320813181821B930B9187808782E07A
:10027000828713C080918600909187009583848344
:1002800022813381821B930B978386831286838519
:10029000811102C081E08387A895CF010C94F900F9
:1002A000FC01138612860C94F9004F925F926F92B4
:1002B0007F928F929F92AF92BF92CF92DF92EF92F6
:1002C000FF920F931F93CF93DF93FC018B017A0171
:1002D0008385882309F469C060897189641775076B
:1002E00020F4F801C484D58462C0C685D785F8019E
:1002F000A284B3844C175D0710F4650158C06C1BD1
:100300007D0BCB01A0E0B0E0BC01CD0127E0660F82
:10031000771F881F991F2A95D1F7F8012485358505
:100320002A193B09032E000C440B550B0E94B30302
:1003300029013A01C701A0E0B0E0BC01CD01E7E02E
:10034000660F771F881F991FEA95D1F70E94B303A4
:1003500069017A01CE01A0E0B0E0BC01CD01F7E077
:10036000660F771F881F991FFA95D1F7A301920195
:100370000E94B303C501BB0CAA0BBB0B49015A0178
:10038000881A990AAA0ABB0AC818D9089601D7FE82
:1003900004C0222733272C193D09F8018685082E31
:1003A000000C990B8217930714F0C12CD12CC601B5
:1003B000DF91CF911F910F91FF90EF90DF90CF9041
:1003C000BF90AF909F908F907F906F905F904F9075
:1003D0000895CF93DF93FC01C081D1818281938105
:1003E000209709F441C02091040121113DC0969548
:1003F000982F8827979587956FEF70E00E949F034D
:100400006C9FC0016D9F900D7C9F900D112497FFF4
:1004100002C081589F4F80786FEF70E00E949F0369
:1004200024813581629FC001639F900D729F900D62
:10043000112497FF02C081589F4F880F892F881F72
:10044000990B9E01281B390B27304FEF340714F40A
:1004500027E03FEF2A3F310514F029EF30E03187E4
:1004600020878C0F9D1F1CC0BC0122273327281B0F
:10047000390B97FDB90141E0603171050CF440E0A2
:100480004093040187304FEF940714F487E09FEF07
:100490008A3F910514F089EF90E091878087C90128
:1004A00087302FEF920714F487E09FEF8A3F910582
:1004B00014F089EF90E097838683DF91CF910895C0
:1004C000882319F085B1806202C085B18F7D85B91E
:1004D0000895882319F085B1816002C085B18E7FAF
:1004E00085B90895882311F05B9808955B9A089563
:1004F000882311F05C9808955C9A0895CF93DF9358
:10050000EC018885998597FD02C05B9803C080E067
:100510000E9472028885998597FF03C09195819505
:10052000910987BD8E819F8197FD02C05C9803C0B1
:1005300080E00E9478028E819F8197FF03C0919591
:100540008195910988BD88859985892B21F48E81B3
:100550009F81892B11F081E001C080E0DF91CF9174
:100560000C946902481759072CF0861797071CF45A
:10057000CB010895CA010895CF93DF93CDB7DEB7BD
:10058000A1970FB6F894DEBF0FBECDBF8E010F5FEF
:100590001F4F82E1F80111928A95E9F78AE79AE301
:1005A000988B8F878AE89BE69A8B898B7E01F3E193
:1005B000EF0EF11C8FE0F70111928A95E9F781E0C7
:1005C0009FEF9E8F8D8F8FEF90E098A38F8F8AE0A3
:1005D00089A3F89480917A008F7780937A00809134
:1005E0007A00887F80937A0080917A00877F809359
:1005F0007A0080917B00806480937B0080917E00F4
:10060000876080937E0080B7806480BF80B78460FD
:1006100080BF80B7826080BF80916F0080628093CE
:100620006F008091810080688093810080918100BB
:1006300081608093810080917C00807F80937C002A
:1006400080917C008F7B80937C008091B1008760DB
:100650008093B1008091B00082608093B00083EFFE
:100660008093B30080917000826080937000259A1F
:10067000209A8AB180668AB98AB188618AB98091E4
:10068000600088618093600085E4809360007894C6
:1006900084B5816084BD84B5806884BD84B5806282
:1006A00084BD84B5806484BD84B5806184BD85B516
:1006B000826085BD83B7817F83BF80E00E94600236
:1006C000C8010E94F90084E6C82ED12CC7010E94FF
:1006D0007E0283B7816083BF889583B78E7F83BF97
:1006E000E0910201F0910301309731F0C8010995C2
:1006F00010920301109202014F815885B701C80181
:100700000E9455019E8B8D8B49855A85B701C80182
:100710000E9455019C8B8B8BD88ECF8AC7010E947B
:10072000E9018B8D9C8D892B21F4898D9A8D892BE4
:1007300011F080E001C081E00E946002C7CF97FB0A
:10074000072E16F4009407D077FD09D00E94D2033B
:1007500007FC05D03EF4909581959F4F08957095C4
:1007600061957F4F0895052E97FB1EF400940E941B
:10077000CA0357FD07D00E94E60307FC03D04EF4DE
:100780000C94CA0350954095309521953F4F4F4F9B
:100790005F4F089590958095709561957F4F8F4F2D
:1007A0009F4F0895AA1BBB1B51E107C0AA1FBB1F87
:1007B000A617B70710F0A61BB70B881F991F5A95ED
:1007C000A9F780959095BC01CD010895A1E21A2E5C
:1007D000AA1BBB1BFD010DC0AA1FBB1FEE1FFF1FE5
:1007E000A217B307E407F50720F0A21BB30BE40B35
:1007F000F50B661F771F881F991F1A9469F760957C
:100800007095809590959B01AC01BD01CF01089535
:04081000F894FFCF8A
:020814000901D8
:00000001FF
