:100000000C9434000C9451000C9451000C94510049
:100010000C9451000C9451000C9495000C946D00BC
:100020000C9451000C9451000C9459000C94510004
:100030000C9451000C9451000C9451000C945100FC
:100040000C9451000C9451000C9451000C945100EC
:100050000C9451000C9481000C9451000C945100AC
:100060000C9451000C94510011241FBECFEFD8E026
:10007000DEBFCDBF11E0A0E0B1E0ECE3FCE002C0E8
:1000800005900D92A230B107D9F721E0A2E0B1E0CE
:1000900001C01D92A834B207E1F70E94F8000C9449
:1000A0001C060C940000FC01158624E02487A8950A
:1000B00008951F920F920FB60F9211248F939F9362
:1000C00085E594E090930301809302019F918F91C5
:1000D0000F900FBE0F901F9018951F920F920FB6A2
:1000E0000F9211248F939F938EE795E090930301D5
:1000F000809302019F918F910F900FBE0F901F90E0
:1001000018951F920F920FB60F9211248F939F9301
:1001100084E792E090930301809302019F918F9175
:100120000F900FBE0F901F9018951F920F920FB651
:100130000F9211248F939F9383E590E09093030196
:10014000809302019F918F910F900FBE0F901F908F
:100150001895FC018485823071F178F48823E9F0E8
:10016000813029F5ECE7F0E08081807F8083E1E851
:10017000F0E080818F7B80831AC0833041F184302E
:10018000B1F4EAE7F0E0808180688083ECE7F0E09A
:100190008081807F826080830895ECE7F0E0808139
:1001A000807F8083E1E8F0E080818064808386B393
:1001B000806286BB0895ECE7F0E08081807F8160FB
:1001C0008083E1E8F0E0808180648083F0CFECE719
:1001D000F0E08081807F81608083EAE7F0E08081C9
:1001E0008F778083E1E8F0E080818F7B8083DFCFB1
:1001F000CF93DF93CDB7DEB7E1970FB6F894DEBFAC
:100200000FBECDBFAE01445E5F4F86E1DA011D92A5
:100210008A95E9F7FE0131968BE1DF011D928A95FF
:10022000E9F721E030E03A8329833C832B833E8346
:100230002D8338872F8384E690E09A87898780E032
:1002400090E8988F8F8B8FEF9FE79A8F898F81E04F
:100250008B8FF9ABE8ABF894A89584B7877F84BF00
:10026000E0E6F0E08081886180838DE0808380819A
:1002700080648083EAE7F0E080818F7780838081EB
:1002800087608083808188608083EBE7F0E08081F5
:1002900080648083EEE7F0E080818760808380B7B0
:1002A000806480BF80B7846080BF80B7826080BF79
:1002B000EFE6F0E0808180628083E1E8F0E0808119
:1002C00080688083808181608083ECE7F0E08081BA
:1002D000807F80838081806C808384B1806284B9D8
:1002E00084B1816084B98AB180668AB98AB1886133
:1002F0008AB9E1EBF0E0808187608083E0EBF0E099
:1003000080818260808383EF8093B300E0E7F0E038
:10031000808182608083789484B5816084BD84B557
:10032000806884BD84B5806284BD84B5806484BDEA
:1003300094B5906194BD95B5926095BD93B7917F4A
:1003400093BFCA010E94A900E0E6F0E080818064CA
:10035000808383B7816083BF889583B78E7F83BF97
:10036000E0910201F0910301309771F3CE014C96B8
:1003700009951092030110920201E6CF4F925F920D
:100380006F927F928F929F92AF92BF92CF92DF92A5
:10039000EF92FF920F931F93CF93DF93EC017B01BA
:1003A00069014817590708F482C08617970708F4AF
:1003B00090C0461B570BBA0180E090E0660F771F94
:1003C000881F991F660F771F881F991F660F771F59
:1003D000881F991F660F771F881F991F660F771F49
:1003E000881F991F660F771F881F991F660F771F39
:1003F000881F991F98012C193D09032E000C440BEE
:10040000550B0E94C70549015A01B70180E090E0F1
:10041000660F771F881F991F660F771F881F991F08
:10042000660F771F881F991F660F771F881F991FF8
:10043000660F771F881F991F660F771F881F991FE8
:10044000660F771F881F991F0E94C7050D2C000C8F
:10045000EE08FF0829013A014C185D086E087F0874
:10046000BE0180E090E0660F771F881F991F660F1E
:10047000771F881F991F660F771F881F991F660FA8
:10048000771F881F991F660F771F881F991F660F98
:10049000771F881F991F660F771F881F991FA50157
:1004A00094010E94C705C9018419950901C0C801BA
:1004B000DF91CF911F910F91FF90EF90DF90CF9040
:1004C000BF90AF909F908F907F906F905F904F9074
:1004D0000895C901EDCF811104C085B18F7D85B923
:1004E000089585B18062FBCFDC01EAE7F0E080810E
:1004F0008F778083ECE7F0E09081907F916090832C
:10050000E0910001F091010180819181209105012C
:1005100030910601281B390B309306012093050109
:10052000809178009091790091838083280F391F02
:10053000309306012093050181E0E534F80761F16D
:100540003296F0930101E09300013695279532959C
:1005500022952F7023273F7023274BE0429FC00135
:10056000439F900D1124825195409C01C2F0359516
:100570002795359527953595279535952795359563
:1005800027951F963C932E931E972536310554F4DC
:1005900081E00E946B020895E7E0F1E0D2CF215E96
:1005A0003F4FE5CF80E00E946B020895811104C0A7
:1005B00085B18E7F85B9089585B18160FBCF8111AA
:1005C00004C08BB188608BB908958BB1877F8BB9DC
:1005D0000895811104C08BB180618BB908958BB1EE
:1005E0008F7E8BB908950F931F93CF93DF93EC0108
:1005F0008B0199230CF181E00E94DF02CE01DD2303
:10060000B4F087BD112354F181E00E94E902C801D2
:100610001123FCF088BDCD2B11F4012B61F181E099
:100620000E94D602DF91CF911F910F9108958827E4
:1006300099278C1B9D0BE5CF80E00E94DF02CE0145
:10064000DD2314F087BDDECF882799278C1B9D0BF7
:10065000F9CF88279927801B910BDCCF80E00E947F
:10066000E902C801112314F088BDD5CF8827992746
:10067000801B910BF9CF80E00E94D602D3CF4817A0
:1006800059072CF0861797071CF4CB010895CA016F
:100690000895CF92DF92EF92FF920F931F93CF9323
:1006A000DF93EC01E880F9800A811B81C8019695EF
:1006B000982F8827979587956FEF70E00E94B30574
:1006C000E69EC001E79E900DF69E900D11249923A1
:1006D0000CF444C02C813D8180786FEF70E00E9463
:1006E000B305269F6001279FD00C369FD00C1124A4
:1006F000DD20BCF1CC0CCD2CCC1CDD08E114F104C8
:1007000021F080910401882381F1980111230CF4D8
:1007100043C081E0203131050CF480E08093040176
:1007200049EF50E067E07FEFC8010E943F039987DF
:10073000888749EF50E067E07FEF88279927801B83
:10074000910B0E943F039F838E83DF91CF911F9176
:100750000F91FF90EF90DF90CF90089581589F4FB9
:10076000B9CF8FE7C80ED11CC5CF49EF50E067E085
:100770007FEFC7018C199D090E943F0399878887E5
:1007800049EF50E067E07FEFC7018C0D9D1D0E948F
:100790003F039F838E83D9CF22273327201B310B22
:1007A000B8CFCF92DF92EF92FF920F931F93CF9328
:1007B000DF93CDB7DEB72B970FB6F894DEBF0FBE31
:1007C000CDBF6C01FE0131968BE0DF011D928A9551
:1007D000E9F788E092E09E838D838AE08B87F601BB
:1007E0008585882309F44BC00FE710E020E83FEF30
:1007F0004AE753EA66E875E6808591850E94BE0166
:100800007C0120E83FEF4AE753EA66E875E6D60147
:100810001A968D919C911B970E94BE019701FF2013
:100820009CF12B30310514F4E12CF12C9C0199231F
:1008300084F12B30310514F480E090E0FC82EB82EF
:100840009A838983CE0101960E944903F60185852A
:10085000813021F16F81788589859A850E94F30224
:100860002B960FB6F894DEBF0FBECDBFDF91CF91B0
:100870001F910F91FF90EF90DF90CF90089580E04F
:1008800090E0E12CF12CCACF222733272E193F0903
:10089000C8CF22273327281B390BCBCF6F81788510
:1008A00089859A850E94F302DBCFCF93DF93EC0119
:1008B0008C85823069F1A0F48823C1F08130F9F48D
:1008C00080918600909187009B838A83288139815B
:1008D000821B930B9987888782E08C87A8950FC02D
:1008E000833001F1843059F41C8609C08091860060
:1008F000909187009983888381E08C87A895CE01A9
:100900000E94A900CE010E94D103DF91CF910895EA
:1009100080918600909187009D838C8383E08C87F3
:10092000A895EDCF80918600909187009F838E835C
:100930002C813D81821B930B9B878A8784E08C8767
:100940008D85811102C081E08D87A895D8CFAF92A7
:10095000BF92CF92DF92EF92FF920F931F93CF93AC
:10096000DF93CDB7DEB728970FB6F894DEBF0FBE82
:10097000CDBF8C0182E0898397EF9A8392E19B83BC
:1009800095EF9C838D838BEF8E8384E08F838FEF35
:100990008887D80152966D917C915397A801465F44
:1009A0005F4F641B750B75956795CC24C394C60E79
:1009B0002C2D237030E0220F331F5901A40EB51ED9
:1009C0005396BC92AE9252975A968C91813009F40C
:1009D0008FC0F8018489958928960FB6F894DEBFF8
:1009E0000FBECDBFDF91CF911F910F91FF90EF9080
:1009F000DF90CF90BF90AF900895472F072E000C47
:100A0000550BE1E0F0E0EC0FFD1FE40FF51FD08087
:100A1000EC2DE370F0E03596EE0FFF1FE00FF11FB5
:100A20000190F081E02D6D2D9F016203D001639F45
:100A3000B00D11248A0F9B1FA5E0B0E0AC0FBD1FC5
:100A40004A0F5B1FDA01DC906D2D6203A001639FEA
:100A5000500D1124E40EF51EC3947F5F74306CF2C8
:100A600066E070E00E94B305D80118968D919C91C4
:100A70001997F50120813181821B930B4D915C9177
:100A800011971296ED91FC9113978E9F90018F9F75
:100A9000300D9E9F300D1124620F731F14962D91FF
:100AA0003C911597E29EC001E39E900DF29E900D41
:100AB0001124681B790B469F9001479F300D569F6C
:100AC000300D112454968D919C91559758964D91C7
:100AD0005C91599756966D917C915797820F931F11
:100AE0000E943F03D80155969C938E93549771CFE3
:100AF00070E0E12CF12C80E090E0B0CFCF93DF9359
:100B0000EC018C85843089F0809147018F5F809360
:100B10004701811107C08D85823020F08C899D8925
:100B20000E94A704DF91CF910895CE010E94A900F1
:100B3000EBCF0F931F93FC01CA01178306837183C8
:100B40006083B8010E94B30573836283C901B80151
:100B50000E94B30575836483CF010A96938B828BC1
:100B60001F910F91089597FB072E16F4009407D05C
:100B700077FD09D00E94E60507FC05D03EF490956C
:100B800081959F4F0895709561957F4F0895052E2B
:100B900097FB1EF400940E94DE0557FD07D00E94CB
:100BA000FA0507FC03D04EF40C94DE0550954095F1
:100BB000309521953F4F4F4F5F4F08959095809509
:100BC000709561957F4F8F4F9F4F0895AA1BBB1B58
:100BD00051E107C0AA1FBB1FA617B70710F0A61B3D
:100BE000B70B881F991F5A95A9F780959095BC015E
:100BF000CD010895A1E21A2EAA1BBB1BFD010DC059
:100C0000AA1FBB1FEE1FFF1FA217B307E407F507BC
:100C100020F0A21BB30BE40BF50B661F771F881F98
:100C2000991F1A9469F760957095809590959B012E
:0C0C3000AC01BD01CF010895F894FFCF86
:020C3C000701AE
:00000001FF
