:100000000C9434000C9446000C9446000C9446006A
:100010000C9446000C9446000C947B000C946700F2
:100020000C9446000C9446000C9453000C9446002B
:100030000C9446000C9446000C9446000C94460028
:100040000C9446000C9446000C9446000C94460018
:100050000C9446000C9446000C9446000C94460008
:100060000C9446000C94460011241FBECFEFD8E03C
:10007000DEBFCDBF21E0A0E0B1E001C01D92A43001
:10008000B207E1F70E9450020C949C030C9400000C
:10009000809103018F5F8093030190E08F77892B1C
:1000A00009F4A89508951F920F920FB60F9211248C
:1000B0008F939F938FEA90E09093010180930001CA
:1000C0009F918F910F900FBE0F901F9018951F92C8
:1000D0000F920FB60F9211248F939F9388E490E0B4
:1000E00090930101809300019F918F910F900FBE1B
:1000F0000F901F9018951F920F920FB60F92112418
:100100008F939F9384EE90E0909301018093000180
:100110009F918F910F900FBE0F901F901895FC012B
:100120008285813081F030F08230B9F480917C009A
:100130008E7F0CC080917C00816080937C008091D8
:100140008100806408C080917C00816080937C0085
:10015000809181008F7B80938100B59A0895FC0186
:100160008285813061F018F08230C1F02AC0809120
:100170008600909187009183808381E00DC08091FB
:100180008600909187009383828320813181821B36
:10019000930B9187808782E0828713C080918600CD
:1001A000909187009583848322813381821B930BF6
:1001B0009783868312868385811102C081E08387BD
:1001C000A895CF010C948F00FC01138612860C9425
:1001D0008F004F925F926F927F928F929F92AF9219
:1001E000BF92CF92DF92EF92FF920F931F93CF9324
:1001F000DF93FC018B017A018385882309F469C0B0
:10020000668577856417750720F4F801C484D58462
:1002100062C0C485D585F801A284B3844C175D07FC
:1002200010F4650158C06C1B7D0BCB01A0E0B0E061
:10023000BC01CD0127E0660F771F881F991F2A9503
:10024000D1F7F801248535852A193B09032E000CC6
:10025000440B550B0E94470329013A01C701A0E056
:10026000B0E0BC01CD01E7E0660F771F881F991F42
:10027000EA95D1F70E94470369017A01CE01A0E017
:10028000B0E0BC01CD01F7E0660F771F881F991F12
:10029000FA95D1F7A30192010E944703C501BB0C57
:1002A000AA0BBB0B49015A01881A990AAA0ABB0A70
:1002B000C818D9089601D7FE04C0222733272C1965
:1002C0003D09F8018685082E000C990B82179307CB
:1002D00014F0C12CD12CC601DF91CF911F910F9149
:1002E000FF90EF90DF90CF90BF90AF909F908F9056
:1002F0007F906F905F904F900895CF93DF93FC01B4
:10030000C081D18182819381209709F441C02091DD
:10031000020121113DC09695982F882797958795C2
:100320006FEF70E00E9433036C9FC0016D9F900DD2
:100330007C9F900D112497FF02C081589F4F8078B9
:100340006FEF70E00E94330324813581629FC0010A
:10035000639F900D729F900D112497FF02C08158EA
:100360009F4F880F892F881F990B9E01281B390BDF
:1003700027304FEF340714F427E03FEF2A3F3105D1
:1003800014F029EF30E0318720878C0F9D1F1CC0AF
:10039000BC0122273327281B390B97FDB90141E007
:1003A000603171050CF440E04093020187304FEF5B
:1003B000940714F487E09FEF8A3F910514F089EFCA
:1003C00090E091878087C90187302FEF920714F45E
:1003D00087E09FEF8A3F910514F089EF90E09783C3
:1003E0008683DF91CF910895882319F085B18062CB
:1003F00002C085B18F7D85B90895882319F085B134
:10040000816002C085B18E7F85B90895882311F07F
:100410005B9808955B9A0895882311F05C9808957D
:100420005C9A0895CF93DF93EC018885998597FDB9
:1004300002C05B9803C080E00E940602888599850F
:1004400097FF03C091958195910987BD8E819F810A
:1004500097FD02C05C9803C080E00E940C028E8170
:100460009F8197FF03C091958195910988BD8885EB
:100470009985892B21F48E819F81892B11F081E050
:1004800001C080E0DF91CF910C94FD01481759071E
:100490002CF0861797071CF4CB010895CA01089524
:1004A000CF93DF93CDB7DEB76F970FB6F894DEBF6B
:1004B0000FBECDBF8E010F5F1F4F80E1F80111927B
:1004C0008A95E9F78AE79AE39E878D878AE89BE613
:1004D000988B8F877E01F1E1EF0EF11C8FE0F70121
:1004E00011928A95E9F781E09FEF9C8F8B8F8FEFB8
:1004F00090E09E8F8D8F8AE08F8FF89480917A00A4
:100500008F7780937A0080917A00887F80937A0039
:1005100080917A00877F80937A0080917B0080644D
:1005200080937B0080917E00876080937E0080B7FF
:10053000806480BF80B7846080BF80B7826080BFE6
:1005400080916F00806280936F008091810080684D
:1005500080938100809181008160809381008091EF
:100560007C00887F80937C0080917C008F7B8093CF
:100570007C008091B10087608093B1008091B000D1
:1005800082608093B00083EF8093B300809170000D
:10059000826080937000259A209A8AB180668AB919
:1005A0008AB188618AB98091600088618093600017
:1005B00085E480936000789484B5816084BD84B5BF
:1005C000806884BD84B5806284BD84B5806484BD48
:1005D00084B5806184BD85B5826085BD83B7817F28
:1005E00083BF80E00E94F401C8010E948F0084E66E
:1005F000C82ED12CC7010E94120283B7816083BF2D
:10060000889583B78E7F83BFE0910001F09101014F
:10061000309731F0C8010995109201011092000144
:100620004F815885B701C8010E94E9009C8B8B8BD4
:1006300049855A85B701C8010E94E9009A8B898BC8
:10064000DE8ACD8AC7010E947D01898D9A8D892B12
:1006500021F48F89988D892B11F080E001C081E011
:100660000E94F401C7CF97FB072E16F4009407D021
:1006700077FD09D00E94660307FC05D03EF49095F3
:1006800081959F4F0895709561957F4F0895052E30
:1006900097FB1EF400940E945E0357FD07D00E9452
:1006A0007A0307FC03D04EF40C945E0350954095FA
:1006B000309521953F4F4F4F5F4F0895909580950E
:1006C000709561957F4F8F4F9F4F0895AA1BBB1B5D
:1006D00051E107C0AA1FBB1FA617B70710F0A61B42
:1006E000B70B881F991F5A95A9F780959095BC0163
:1006F000CD010895A1E21A2EAA1BBB1BFD010DC05E
:10070000AA1FBB1FEE1FFF1FA217B307E407F507C1
:1007100020F0A21BB30BE40BF50B661F771F881F9D
:10072000991F1A9469F760957095809590959B0133
:0C073000AC01BD01CF010895F894FFCF8B
:00000001FF
