:100000000C9434000C9451000C9451000C94510049
:100010000C9451000C9451000C94D0000C94A80046
:100020000C9451000C9451000C9494000C945100C9
:100030000C9451000C9451000C9451000C945100FC
:100040000C9451000C9451000C9451000C945100EC
:100050000C9451000C94BC000C9451000C94510071
:100060000C9451000C94510011241FBECFEFD8E026
:10007000DEBFCDBF11E0A0E0B1E0E6E5FCE002C0EC
:1000800005900D92A230B107D9F721E0A2E0B1E0CE
:1000900001C01D92A834B207E1F70E9404030C943A
:1000A00029060C940000DC01EAE7F0E090819F77DC
:1000B0009083ECE7F0E09081907F91609083E091F5
:1000C0000001F0910101209105013091060180812C
:1000D0009181281B390B30930601209305018091F3
:1000E00078009091790091838083280F391F309395
:1000F00006012093050181E0E534F80791F032967E
:10010000F0930101E09300013695279532952295F1
:100110002F7023273F7023271D963C932E931C9707
:100120000895E7E0F1E0ECCF1F920F920FB60F9227
:1001300011248F939F9380E191E09093030180932A
:1001400002019F918F910F900FBE0F901F901895F5
:100150001F920F920FB60F9211248F939F9388E8EE
:1001600095E090930301809302019F918F910F90EE
:100170000FBE0F901F9018951F920F920FB60F92FF
:1001800011248F939F9383E590E0909303018093D4
:1001900002019F918F910F900FBE0F901F901895A5
:1001A0001F920F920FB60F9211248F939F9388E4A2
:1001B00091E090930301809302019F918F910F90A2
:1001C0000FBE0F901F901895FC018285813089F039
:1001D00020F08230D1F0B59A0895ECE7F0E080810C
:1001E000807F81608083E1E8F0E0808180648083AB
:1001F000F2CFECE7F0E08081807F81608083E1E8EE
:10020000F0E080818F7B8083E6CFECE7F0E08081B7
:10021000807F8083E1E8F0E080818F7B8083DBCF8B
:10022000FC012285213081F028F02230E9F00E9483
:10023000E40008952091860030918700FC0131830D
:10024000208321E02287F3CF209186003091870020
:10025000FC013383228340815181241B350B31877C
:10026000208722E02287E3CF20918600309187000B
:10027000FC013583248342815381241B350B378352
:100280002683128623852111D2CF21E02387CFCF69
:10029000FC01138612860E94E40008954F925F923B
:1002A0006F927F928F929F92AF92BF92CF92DF9286
:1002B000EF92FF920F931F93CF93DF93EC017B019B
:1002C00069014817590708F482C08617970708F490
:1002D00090C0461B570BBA0180E090E0660F771F75
:1002E000881F991F660F771F881F991F660F771F3A
:1002F000881F991F660F771F881F991F660F771F2A
:10030000881F991F660F771F881F991F660F771F19
:10031000881F991F98012C193D09032E000C440BCE
:10032000550B0E94D40549015A01BE0180E090E0BE
:10033000660F771F881F991F660F771F881F991FE9
:10034000660F771F881F991F660F771F881F991FD9
:10035000660F771F881F991F660F771F881F991FC9
:10036000660F771F881F991F0E94D40529013A0143
:10037000B70180E090E0660F771F881F991F660F16
:10038000771F881F991F660F771F881F991F660F99
:10039000771F881F991F660F771F881F991F660F89
:1003A000771F881F991F660F771F881F991FA50148
:1003B00094010E94D4050D2C000CEE08FF082C19A6
:1003C0003D094E095F09C201821B930B01C0C801A0
:1003D000DF91CF911F910F91FF90EF90DF90CF9021
:1003E000BF90AF909F908F907F906F905F904F9055
:1003F0000895C901EDCFFC01208131818281938173
:100400002115310521F040910401442369F1AC012B
:1004100099230CF476C021E0403151050CF420E022
:1004200020930401582F492F87302FEF920714F49F
:1004300057E04FEF252F342F2A3F310514F029EFD5
:1004400030E03187208791958195910987306FEF52
:10045000960714F487E09FEF8A3F910514F089EF27
:1004600090E09783868308959695982F882797958F
:1004700087956FEF70E00E94C005629FC001639F87
:10048000900D729F900D11249923ACF180786FEF3D
:1004900070E00E94C00544815581649FC001659F42
:1004A000900D749F900D1124992344F1AC01440FD9
:1004B000452F441F550BC901841B950B87306FEFE7
:1004C000960714F487E09FEF8A3F910514F089EFB7
:1004D00090E091878087240F351F27308FEF3807F2
:1004E00014F427E03FEF2A3F310514F029EF30E004
:1004F00037832683089581589F4FC8CF81589F4FD7
:10050000D5CF44275527481B590B85CF811104C0EF
:1005100085B18F7D85B9089585B18062FBCF81114A
:1005200004C085B18E7F85B9089585B18160FBCF08
:10053000811102C05B9A08955B980895A895E0E642
:10054000F0E08081806480830895811102C05C9A0C
:1005500008955C9808950F931F93CF93DF938C01B8
:10056000EB019923ECF081E00E949802C80111236D
:1005700094F087BDDD237CF181E00E94A502CE01CD
:10058000DD2324F188BD012B69F5CD2B59F580E0E1
:100590000E948F022AC088279927801B910BE9CFE0
:1005A00080E00E949802C80199235CF087BDDD239A
:1005B00094F081E00E94A502CE01DD2304F188BD04
:1005C00011C088279927801B910BF0CF8827992786
:1005D0008C1B9D0BD7CF80E00E94A502CE01DD23AE
:1005E0004CF088BD81E00E948F02DF91CF911F9176
:1005F0000F910895882799278C1B9D0BF2CF882790
:1006000099278C1B9D0BDBCFCF93DF93CDB7DEB744
:10061000EA970FB6F894DEBF0FBECDBFAE01495DBD
:100620005F4F84E1DA011D928A95E9F7FE013C965D
:100630008BE1DF011D928A95E9F721E030E03D87EB
:100640002C873F872E87398B288B3B8B2A8B80E02A
:1006500090E89BA38AA38FEF9FE79DA38CA381E0E3
:100660008EA3FAAFE9AF3B978BE0DF011D928A952D
:10067000E9F784E690E09E838D838AE08B87F89487
:10068000A89584B7877F84BFE0E6F0E08081886129
:1006900080838DE08083808180648083EAE7F0E05E
:1006A00080818F778083808187608083808188606C
:1006B0008083EBE7F0E0808180648083EEE7F0E008
:1006C00080818760808380B7806480BF80B78460CA
:1006D00080BF80B7826080BFEFE6F0E080818062FB
:1006E0008083E1E8F0E080818068808380818160A0
:1006F0008083ECE7F0E08081807F80838081806C64
:100700008083259A209A8AB180668AB98AB18861E5
:100710008AB9E1EBF0E0808187608083E0EBF0E074
:1007200080818260808383EF8093B300E0E7F0E014
:10073000808182608083789484B5816084BD84B533
:10074000806884BD84B5806284BD84B5806484BDC6
:1007500094B5906194BD95B5926095BD93B7917F26
:1007600093BFCA010E94E4000F2EFFE7EF2EF02D89
:10077000F12C6894CC24C7F8DD24DA940F2EF0EA2B
:100780008F2EF8E19F2EA12CB12CF02D6EC00E2DD6
:100790001F2D6FA578A96B38FBE67F0708F0B1C065
:1007A0006A378AE3780708F4AFC080E090E0660F0C
:1007B000771F881F991F660F771F881F991F660F65
:1007C000771F881F991F660F771F881F991F660F55
:1007D000771F881F991F660F771F881F991F660F45
:1007E000771F881F991FA50194010E94D4052F5AD5
:1007F000314007C00C2D1D2DCCCF20E030E000E0B3
:1008000010E08B85082E000C990BA80111230CF425
:100810007EC08417950714F000E010E0A90133238F
:100820000CF47AC08417950714F020E030E01C83A4
:100830000B833A832983CE0101960E94FB018AA98A
:10084000813009F46EC06F81788589859A850E9410
:10085000AB0289859A85892B29F48F819885892B0C
:1008600009F466C080E00E9486020E949E0283B75F
:10087000816083BF889583B78E7F83BFE09102013B
:10088000F0910301309739F0CE01879609951092C7
:100890000301109202018AA9882309F4AECF6DA545
:1008A0007EA56B38BBE67B0708F071CF6A37EAE3B9
:1008B0007E0708F49FCF80E090E0660F771F881FC7
:1008C000991F660F771F881F991F660F771F881F54
:1008D000991F660F771F881F991F660F771F881F44
:1008E000991F660F771F881F991F660F771F881F34
:1008F000991FA50194010E94D40589010F5A114046
:1009000048CF2E2D3F2D7DCF2C2D3D2D7ACF442746
:100910005527401B510B7DCF44275527421B530BB6
:1009200081CF6F81788589859A850E94AB0291CFAE
:1009300081E00E94860299CF481759072CF086174C
:1009400097071CF4CB010895CA0108954F925F9256
:100950006F927F928F929F92BF92CF92DF92EF928F
:10096000FF920F931F93CF93DF93CDB7DEB72897F6
:100970000FB6F894DEBF0FBECDBF9C0182E0898325
:1009800097EF9A8392E19B8395EF9C838D838BEF06
:100990008E8384E08F838FEF8887B901665F7F4FF6
:1009A000D90152968D919C915397861B970B9595E3
:1009B0008795EE24E394E80EAE2DA370B0E0AA0F65
:1009C000BB1F3D01660E771EF901738A628A428D54
:1009D0004130D9F0D90154968D919C915597289624
:1009E0000FB6F894DEBF0FBECDBFDF91CF911F9140
:1009F0000F91FF90EF90DF90CF90BF909F908F90DE
:100A00007F906F905F904F900895AE014F5F5F4F62
:100A10004A012E0155E0450E511C0F2EF5E0FF2E28
:100A2000F02DF80E00E010E080E090E0D401BD90E1
:100A30004D01EE2DE370F0E03596EE0FFF1FE20F53
:100A4000F31F0190F081E02D6B2DAF016403600175
:100A5000659FD00C11248C0D9D1DD201BD902D01E0
:100A60006B2D64036001659FD00C11240C0D1D1DBE
:100A7000E394FE10DBCFD90118964D915C91199744
:100A8000F30160817181461B570B12966D917C9129
:100A90001397469FF001479FF00D569FF00D1124CC
:100AA00066E070E00E94C005E60FF71FD9011496BA
:100AB0004D915C911597049FC001059F900D149F67
:100AC000900D1124E81BF90B4D915C911197E49F57
:100AD000C001E59F900DF49F900D112454964D9107
:100AE0005C915597840F951F58964D915C9159973D
:100AF00056966D917C915797481759072CF0AC0189
:100B0000861797070CF4AB01F901558B448B62CF24
:100B1000FC01828581110BC0AAE7B0E08C9180684E
:100B20008C93ACE7B0E09C91907F92609C93909105
:100B300047019F5F90934701911107C083858230E1
:100B400020F0828993890E94A60408950F931F9331
:100B5000FC01CA011783068371836083B8010E9478
:100B6000C00573836283C901B8010E94C005758303
:100B70006483CF010A96938B828B1F910F91089506
:100B800097FB072E16F4009407D077FD09D00E943A
:100B9000F30507FC05D03EF4909581959F4F08958D
:100BA000709561957F4F0895052E97FB1EF4009474
:100BB0000E94EB0557FD07D00E94070607FC03D0F3
:100BC0004EF40C94EB0550954095309521953F4F90
:100BD0004F4F5F4F089590958095709561957F4F29
:100BE0008F4F9F4F0895AA1BBB1B51E107C0AA1F3F
:100BF000BB1FA617B70710F0A61BB70B881F991FBE
:100C00005A95A9F780959095BC01CD010895A1E270
:100C10001A2EAA1BBB1BFD010DC0AA1FBB1FEE1F76
:100C2000FF1FA217B307E407F50720F0A21BB30BC1
:100C3000E40BF50B661F771F881F991F1A9469F73D
:100C400060957095809590959B01AC01BD01CF0199
:060C50000895F894FFCFA7
:020C5600070194
:00000001FF
