:100000000C9434000C9451000C9451000C94510049
:100010000C9451000C9451000C94E7000C94BF0018
:100020000C9451000C9451000C94AB000C945100B2
:100030000C9451000C9451000C9451000C945100FC
:100040000C9451000C9451000C9451000C945100EC
:100050000C9451000C94D3000C9451000C9451005A
:100060000C9451000C94510011241FBECFEFD8E026
:10007000DEBFCDBF11E0A0E0B1E0E6EEFDE002C0E2
:1000800005900D92A830B107D9F721E0A8E0B1E0C2
:1000900001C01D92AE32B207E1F70E94B2050C9486
:1000A000F1060C940000DC01EAE7F0E080818F7734
:1000B0008083ECE7F0E09081907F91609083E09105
:1000C0000001F09101018081918120910B0130911B
:1000D0000C01281B390B30930C0120930B018091EC
:1000E00078009091790091838083280F391F309395
:1000F0000C0120930B0181E0EB32F80731F13296CD
:10010000F0930101E09300013695279532952295F1
:100110002F7023273F7023274BE0429FC001439F4E
:10012000900D1124825195409C0192F035952795B0
:1001300035952795359527953595279535952795A7
:1001400052963C932E9351970895EDE0F1E0D8CF6D
:10015000215E3F4FEBCF1F920F920FB60F921124EB
:100160008F939F9380EB93E0909309018093080114
:100170009F918F910F900FBE0F901F9018951F9217
:100180000F920FB60F9211248F939F938FEE94E0EE
:1001900090930901809308019F918F910F900FBE5A
:1001A0000F901F9018951F920F920FB60F92112467
:1001B0008F939F9383E590E09093090180930801CA
:1001C0009F918F910F900FBE0F901F9018951F92C7
:1001D0000F920FB60F9211248F939F938CE692E0AB
:1001E00090930901809308019F918F910F900FBE0A
:1001F0000F901F901895FC0185859685823091059A
:1002000079F178F40097F1F0019731F5ECE7F0E03F
:100210008081807F8083E1E8F0E080818F7B808334
:100220001BC08330910541F10497B1F4EAE7F0E097
:10023000808180688083ECE7F0E08081807F82604D
:1002400080830895ECE7F0E08081807F8083E1E89F
:10025000F0E080818064808386B3806286BB0895ED
:10026000ECE7F0E08081807F81608083E1E8F0E06E
:10027000808180648083F0CFECE7F0E08081807F34
:1002800081608083EAE7F0E080818F778083E1E816
:10029000F0E080818F7B8083DFCF4F925F926F92FF
:1002A0007F928F929F92AF92BF92CF92DF92EF9206
:1002B000FF920F931F93CF93DF93EC017B016901B2
:1002C0004817590708F482C08617970708F490C0AA
:1002D000461B570BBA0180E090E0660F771F881F1E
:1002E000991F660F771F881F991F660F771F881F3A
:1002F000991F660F771F881F991F660F771F881F2A
:10030000991F660F771F881F991F660F771F881F19
:10031000991F98012C193D09032E000C440B550B15
:100320000E949C0649015A01B70180E090E0660FE7
:10033000771F881F991F660F771F881F991F660FE9
:10034000771F881F991F660F771F881F991F660FD9
:10035000771F881F991F660F771F881F991F660FC9
:10036000771F881F991F0E949C060D2C000CEE0819
:10037000FF0829013A014C185D086E087F08BE018C
:1003800080E090E0660F771F881F991F660F771F28
:10039000881F991F660F771F881F991F660F771F89
:1003A000881F991F660F771F881F991F660F771F79
:1003B000881F991F660F771F881F991FA501940139
:1003C0000E949C06C9018419950901C0C801DF91EA
:1003D000CF911F910F91FF90EF90DF90CF90BF9042
:1003E000AF909F908F907F906F905F904F90089507
:1003F000C901EDCF811104C085B18F7D85B9089504
:1004000085B18062FBCF811104C085B18E7F85B933
:10041000089585B18160FBCF811104C08BB18860E4
:100420008BB908958BB1877F8BB90895811104C072
:100430008BB180618BB908958BB18F7E8BB9089594
:100440000F931F93CF93DF93EC018B0199230CF152
:1004500081E00E940C02CE01DD23B4F087BD1123A0
:1004600054F181E00E941602C8011123FCF088BDFE
:10047000CD2B11F4012B61F181E00E940302DF9189
:10048000CF911F910F910895882799278C1B9D0B61
:10049000E5CF80E00E940C02CE01DD2314F087BD81
:1004A000DECF882799278C1B9D0BF9CF88279927AA
:1004B000801B910BDCCF80E00E941602C801112343
:1004C00014F088BDD5CF88279927801B910BF9CFD1
:1004D00080E00E940302D3CFCF93DF93EC018F859E
:1004E0009889029760F08F859889892B59F084E06C
:1004F00090E09E878D87A895DF91CF910895188A07
:100500001F86F1CF60E070E080E090E00E94200262
:10051000EECF481759072CF0861797071CF4CB012C
:100520000895CA010895CF92DF92EF92FF920F9340
:100530001F93CF93DF93EC01E880F9800A811B8140
:10054000C8019695982F8827979587956FEF70E04B
:100550000E948806E69EC001E79E900DF69E900DD3
:10056000112499230CF444C02C813D8180786FEFD5
:1005700070E00E948806269F6001279FD00C369F5E
:10058000D00C1124DD20BCF1CC0CCD2CCC1CDD0812
:10059000E114F10421F080910A01882381F198018E
:1005A00011230CF443C081E0203131050CF480E0CC
:1005B00080930A0149EF50E067E07FEFC8010E9495
:1005C00089029987888749EF50E067E07FEF8827A5
:1005D0009927801B910B0E9489029F838E83DF9154
:1005E000CF911F910F91FF90EF90DF90CF900895E2
:1005F00081589F4FB9CF8FE7C80ED11CC5CF49EFA7
:1006000050E067E07FEFC7018C199D090E948902C5
:100610009987888749EF50E067E07FEFC7018C0D2D
:100620009D1D0E9489029F838E83D9CF2227332765
:10063000201B310BB8CFCF92DF92EF92FF920F9336
:100640001F93CF93DF93CDB7DEB72B970FB6F894F8
:10065000DEBF0FBECDBF7C01FE0131968BE0DF0116
:100660001D928A95E9F788E092E09E838D838AE067
:100670008B87F70187859089892B09F449C00FE79B
:1006800010E020E83FEF4AE753EA66E875E6808528
:1006900091850E944D016C0120E83FEF4AE753EA43
:1006A00066E875E6D7011A968D919C911B970E947A
:1006B0004D019601DD208CF12B30310514F4C12C55
:1006C000D12C9C01992374F12B30310514F480E076
:1006D00090E0DC82CB829A838983CE0101960E94CE
:1006E0009302F70187859089019709F160E070E036
:1006F00080E090E00E94200289859A85892BF1F4A0
:100700008F819885892BD1F481E0F701848719C006
:1007100080E090E0C12CD12CCCCF222733272C199C
:100720003D09CACF22273327281B390BCDCF6F8134
:10073000788589859A850E942002DECFD7011C9694
:100740001C922B960FB6F894DEBF0FBECDBFDF9183
:10075000CF911F910F91FF90EF90DF90CF90089570
:10076000CF93DF93EC018F8598898230910518F043
:10077000DF91CF9108952D853E8522303105A1F17D
:10078000C0F421153105F1F02130310531F58091AA
:100790008600909187009B838A8328813981821B00
:1007A000930B9987888782E090E09E878D87A89534
:1007B00014C02330310521F12430310571F41E8637
:1007C0001D860BC080918600909187009983888355
:1007D00081E090E09E878D87A895CE010E94FB0066
:1007E000CE010E941B03C4CF8091860090918700A8
:1007F0009D838C8383E090E09E878D87A895EDCFC5
:1008000020918600309187003F832E834C815D814B
:10081000241B350B3B872A8724E030E03E872D8759
:10082000892B21F481E090E0988B8F87A895D5CF14
:10083000AF92BF92CF92DF92EF92FF920F931F93EE
:10084000CF93DF93CDB7DEB728970FB6F894DEBF0E
:100850000FBECDBF8C0182E0898397EF9A8392E12E
:100860009B8395EF9C838D838BEF8E8384E08F83B6
:100870008FEF8887D80152966D917C915397A8018C
:10088000465F5F4F641B750B75956795CC24C394C9
:10089000C60E2C2D237030E0220F331F5901A40EF9
:1008A000B51E5396BC92AE9252975A968C91813057
:1008B00009F48FC0F8018489958928960FB6F894B9
:1008C000DEBF0FBECDBFDF91CF911F910F91FF9083
:1008D000EF90DF90CF90BF90AF900895472F072EF5
:1008E000000C550BE1E0F0E0EC0FFD1FE40FF51FED
:1008F000D080EC2DE370F0E03596EE0FFF1FE00F97
:10090000F11F0190F081E02D6D2D9F016203D00158
:10091000639FB00D11248A0F9B1FA5E0B0E0AC0FC0
:10092000BD1F4A0F5B1FDA01DC906D2D6203A00131
:10093000639F500D1124E40EF51EC3947F5F743045
:100940006CF266E070E00E948806D80118968D91DE
:100950009C911997F50120813181821B930B4D9158
:100960005C9111971296ED91FC9113978E9F9001D7
:100970008F9F300D9E9F300D1124620F731F1496B0
:100980002D913C911597E29EC001E39E900DF29E41
:10099000900D1124681B790B469F9001479F300DE5
:1009A000569F300D112454968D919C9155975896D1
:1009B0004D915C91599756966D917C915797820F06
:1009C000931F0E948902D80155969C938E93549749
:1009D00071CF70E0E12CF12C80E090E0B0CF0F936C
:1009E0001F93CF93DF93EC018D859E850497B1F122
:1009F00080912D01805F80932D01882399F18C8552
:100A0000813009F46AC08F859889029709F480C003
:100A100080E491E09093050180930401892B11F407
:100A2000188A1F868F859889039709F477C080E01C
:100A30009FE09093030180930201892B11F4188A9F
:100A40001F868F859889029709F46EC080E00E9406
:100A5000FA01DF91CF911F910F910895CE010E946D
:100A6000FB00C6CFEF89F88D0288F389E02D8989D4
:100A70009A89918380838F89988D0E9418048F852D
:100A80009889029728F1EF89F88D81E0828FEF89AC
:100A9000F88D09EF10E020E030E04FEF5FEF60E00D
:100AA00070E0848995890E944D01BC010E9420025A
:100AB000EF89F88D0288F389E02D80819181843659
:100AC00091050CF49CCF83E090E0988B8F8797CFB3
:100AD000EF89F88D158A148A92CF489B07C08091C0
:100AE0000601803418F48F5F80930601489907C08F
:100AF00080910601882319F081508093060180912E
:100B00000601811180CF82E090E0988B8F877BCFA8
:100B1000809104019091050101977CCF80910201A1
:100B200090910301019785CF81E00E94FA0191CF56
:100B30000F931F93FC01CA0117830683718360839F
:100B4000B8010E94880673836283C901B8010E94BC
:100B5000880675836483CF010A96938B828B1F91DD
:100B60000F910895CF93DF93CDB7DEB7E4970FB61B
:100B7000F894DEBF0FBECDBF7E018CE1E80EF11C04
:100B800089E1F70111928A95E9F7CE0101962BE1EF
:100B9000FC0111922A95E9F721E030E03A8329839C
:100BA0003C832B833E832D8338872F8324E630E0DC
:100BB0003A8729872FEF3FEF3A8F298F21E02B8F3C
:100BC0009CAB8BAB04E010E020E030E041E050E073
:100BD00061E070E00E949805F894A89584B7877F3B
:100BE00084BFE0E6F0E08081886180838DE08083CF
:100BF000808180648083EAE7F0E080818F77808362
:100C0000808187608083808188608083EBE7F0E06B
:100C1000808180648083EEE7F0E08081876080835C
:100C200080B7806480BF80B7846080BF80B78260F7
:100C300080BFEFE6F0E0808180628083E1E8F0E051
:100C4000808180688083808181608083ECE7F0E030
:100C50008081807F80838081806C808384B18E7F5F
:100C600084B98BB181608BB984B1806284B984B15D
:100C7000816084B98AB180668AB98AB188618AB98B
:100C800084B1816084B9E1EBF0E08081876080838A
:100C9000E0EBF0E080818260808383EF8093B3009B
:100CA000E0E7F0E0808182608083789484B58160A1
:100CB00084BD84B5806884BD84B5806284BD84B5FC
:100CC000806484BD84B5806184BD85B5826085BD46
:100CD00083B7817F83BFC7010E94FB00E0E6F0E09D
:100CE00080818064808383B7816083BF889583B768
:100CF0008E7F83BFE0910801F0910901309771F375
:100D0000CE014C9609951092090110920801E6CF88
:100D100097FB072E16F4009407D077FD09D00E94A8
:100D2000BB0607FC05D03EF4909581959F4F089532
:100D3000709561957F4F0895052E97FB1EF40094E2
:100D40000E94B30657FD07D00E94CF0607FC03D0D0
:100D50004EF40C94B30650954095309521953F4F35
:100D60004F4F5F4F089590958095709561957F4F97
:100D70008F4F9F4F0895AA1BBB1B51E107C0AA1FAD
:100D8000BB1FA617B70710F0A61BB70B881F991F2C
:100D90005A95A9F780959095BC01CD010895A1E2DF
:100DA0001A2EAA1BBB1BFD010DC0AA1FBB1FEE1FE5
:100DB000FF1FA217B307E407F50720F0A21BB30B30
:100DC000E40BF50B661F771F881F991F1A9469F7AC
:100DD00060957095809590959B01AC01BD01CF0108
:060DE0000895F894FFCF16
:080DE6000D01000F4001400067
:00000001FF
